{
    "contractName": "AirdropTWOoooo",
    "abi": [
        {
            "inputs": [],
            "stateMutability": "nonpayable",
            "type": "constructor"
        },
        {
            "anonymous": false,
            "inputs": [
                {
                    "indexed": false,
                    "internalType": "address",
                    "name": "account",
                    "type": "address"
                }
            ],
            "name": "Paused",
            "type": "event"
        },
        {
            "anonymous": false,
            "inputs": [
                {
                    "indexed": true,
                    "internalType": "bytes32",
                    "name": "role",
                    "type": "bytes32"
                },
                {
                    "indexed": true,
                    "internalType": "bytes32",
                    "name": "previousAdminRole",
                    "type": "bytes32"
                },
                {
                    "indexed": true,
                    "internalType": "bytes32",
                    "name": "newAdminRole",
                    "type": "bytes32"
                }
            ],
            "name": "RoleAdminChanged",
            "type": "event"
        },
        {
            "anonymous": false,
            "inputs": [
                {
                    "indexed": true,
                    "internalType": "bytes32",
                    "name": "role",
                    "type": "bytes32"
                },
                {
                    "indexed": true,
                    "internalType": "address",
                    "name": "account",
                    "type": "address"
                },
                {
                    "indexed": true,
                    "internalType": "address",
                    "name": "sender",
                    "type": "address"
                }
            ],
            "name": "RoleGranted",
            "type": "event"
        },
        {
            "anonymous": false,
            "inputs": [
                {
                    "indexed": true,
                    "internalType": "bytes32",
                    "name": "role",
                    "type": "bytes32"
                },
                {
                    "indexed": true,
                    "internalType": "address",
                    "name": "account",
                    "type": "address"
                },
                {
                    "indexed": true,
                    "internalType": "address",
                    "name": "sender",
                    "type": "address"
                }
            ],
            "name": "RoleRevoked",
            "type": "event"
        },
        {
            "anonymous": false,
            "inputs": [
                {
                    "indexed": false,
                    "internalType": "address",
                    "name": "account",
                    "type": "address"
                }
            ],
            "name": "Unpaused",
            "type": "event"
        },
        {
            "inputs": [],
            "name": "DEFAULT_ADMIN_ROLE",
            "outputs": [
                {
                    "internalType": "bytes32",
                    "name": "",
                    "type": "bytes32"
                }
            ],
            "stateMutability": "view",
            "type": "function"
        },
        {
            "inputs": [],
            "name": "PAUSER_ROLE",
            "outputs": [
                {
                    "internalType": "bytes32",
                    "name": "",
                    "type": "bytes32"
                }
            ],
            "stateMutability": "view",
            "type": "function"
        },
        {
            "inputs": [
                {
                    "internalType": "address[]",
                    "name": "accounts",
                    "type": "address[]"
                },
                {
                    "internalType": "uint256[]",
                    "name": "amounts",
                    "type": "uint256[]"
                }
            ],
            "name": "deliverInBatch",
            "outputs": [],
            "stateMutability": "nonpayable",
            "type": "function"
        },
        {
            "inputs": [
                {
                    "internalType": "bytes32",
                    "name": "role",
                    "type": "bytes32"
                }
            ],
            "name": "getRoleAdmin",
            "outputs": [
                {
                    "internalType": "bytes32",
                    "name": "",
                    "type": "bytes32"
                }
            ],
            "stateMutability": "view",
            "type": "function"
        },
        {
            "inputs": [
                {
                    "internalType": "bytes32",
                    "name": "role",
                    "type": "bytes32"
                },
                {
                    "internalType": "address",
                    "name": "account",
                    "type": "address"
                }
            ],
            "name": "grantRole",
            "outputs": [],
            "stateMutability": "nonpayable",
            "type": "function"
        },
        {
            "inputs": [
                {
                    "internalType": "bytes32",
                    "name": "role",
                    "type": "bytes32"
                },
                {
                    "internalType": "address",
                    "name": "account",
                    "type": "address"
                }
            ],
            "name": "hasRole",
            "outputs": [
                {
                    "internalType": "bool",
                    "name": "",
                    "type": "bool"
                }
            ],
            "stateMutability": "view",
            "type": "function"
        },
        {
            "inputs": [
                {
                    "internalType": "address",
                    "name": "",
                    "type": "address"
                }
            ],
            "name": "participantes",
            "outputs": [
                {
                    "internalType": "address",
                    "name": "account",
                    "type": "address"
                },
                {
                    "internalType": "uint256",
                    "name": "participaciones",
                    "type": "uint256"
                },
                {
                    "internalType": "uint256",
                    "name": "limiteParticipaciones",
                    "type": "uint256"
                },
                {
                    "internalType": "uint256",
                    "name": "ultimaVezQueParticipo",
                    "type": "uint256"
                }
            ],
            "stateMutability": "view",
            "type": "function"
        },
        {
            "inputs": [
                {
                    "internalType": "address",
                    "name": "_personaQueTeRefirio",
                    "type": "address"
                }
            ],
            "name": "participateInAirdrop",
            "outputs": [],
            "stateMutability": "nonpayable",
            "type": "function"
        },
        {
            "inputs": [],
            "name": "pause",
            "outputs": [],
            "stateMutability": "nonpayable",
            "type": "function"
        },
        {
            "inputs": [],
            "name": "paused",
            "outputs": [
                {
                    "internalType": "bool",
                    "name": "",
                    "type": "bool"
                }
            ],
            "stateMutability": "view",
            "type": "function"
        },
        {
            "inputs": [
                {
                    "internalType": "bytes32",
                    "name": "role",
                    "type": "bytes32"
                },
                {
                    "internalType": "address",
                    "name": "account",
                    "type": "address"
                }
            ],
            "name": "renounceRole",
            "outputs": [],
            "stateMutability": "nonpayable",
            "type": "function"
        },
        {
            "inputs": [
                {
                    "internalType": "bytes32",
                    "name": "role",
                    "type": "bytes32"
                },
                {
                    "internalType": "address",
                    "name": "account",
                    "type": "address"
                }
            ],
            "name": "revokeRole",
            "outputs": [],
            "stateMutability": "nonpayable",
            "type": "function"
        },
        {
            "inputs": [
                {
                    "internalType": "bytes4",
                    "name": "interfaceId",
                    "type": "bytes4"
                }
            ],
            "name": "supportsInterface",
            "outputs": [
                {
                    "internalType": "bool",
                    "name": "",
                    "type": "bool"
                }
            ],
            "stateMutability": "view",
            "type": "function"
        },
        {
            "inputs": [],
            "name": "unpause",
            "outputs": [],
            "stateMutability": "nonpayable",
            "type": "function"
        }
    ],
    "bytecode": "6080604052600254600380546001600160a01b0319166001600160a01b0390921691909117905534801561003257600080fd5b506000805460ff191681556100479033610076565b6100717f65d7a28e3265b37a6474929f336521b332c1681b933f6cb9f3376673440d862a33610076565b6100fe565b60008281526001602090815260408083206001600160a01b038516845290915290205460ff166100fa5760008281526001602081815260408084206001600160a01b0386168086529252808420805460ff19169093179092559051339285917f2f8788117e7eff1d82e926ec794901d17c78024a50270940304540a733656f0d9190a45b5050565b6112068061010d6000396000f3fe608060405234801561001057600080fd5b50600436106100ea5760003560e01c806362c1d09e1161008c578063a217fddf11610066578063a217fddf1461021b578063a4dfc6e014610223578063d547741f14610236578063e63ab1e91461024957600080fd5b806362c1d09e146101ed5780638456cb591461020057806391d148541461020857600080fd5b80632fffcf96116100c85780632fffcf961461015e57806336568abe146101c75780633f4ba83a146101da5780635c975abb146101e257600080fd5b806301ffc9a7146100ef578063248a9ca3146101175780632f2ff15d14610149575b600080fd5b6101026100fd366004610dca565b610270565b60405190151581526020015b60405180910390f35b61013b610125366004610df4565b6000908152600160208190526040909120015490565b60405190815260200161010e565b61015c610157366004610e29565b6102a7565b005b61019d61016c366004610e55565b60046020526000908152604090208054600182015460028301546003909301546001600160a01b0390921692909184565b604080516001600160a01b039095168552602085019390935291830152606082015260800161010e565b61015c6101d5366004610e29565b6102d2565b61015c610355565b60005460ff16610102565b61015c6101fb366004610f46565b61038a565b61015c61049e565b610102610216366004610e29565b6104d0565b61013b600081565b61015c610231366004610e55565b6104fb565b61015c610244366004610e29565b61092f565b61013b7f65d7a28e3265b37a6474929f336521b332c1681b933f6cb9f3376673440d862a81565b60006001600160e01b03198216637965db0b60e01b14806102a157506301ffc9a760e01b6001600160e01b03198316145b92915050565b600082815260016020819052604090912001546102c381610955565b6102cd838361095f565b505050565b6001600160a01b03811633146103475760405162461bcd60e51b815260206004820152602f60248201527f416363657373436f6e74726f6c3a2063616e206f6e6c792072656e6f756e636560448201526e103937b632b9903337b91039b2b63360891b60648201526084015b60405180910390fd5b61035182826109ca565b5050565b7f65d7a28e3265b37a6474929f336521b332c1681b933f6cb9f3376673440d862a61037f81610955565b610387610a31565b50565b600061039581610955565b825160005b818110156104975760008582815181106103b6576103b6611006565b60200260200101519050600360009054906101000a90046001600160a01b03166001600160a01b031663a9059cbb828785815181106103f7576103f7611006565b60200260200101516040518363ffffffff1660e01b81526004016104309291906001600160a01b03929092168252602082015260400190565b602060405180830381600087803b15801561044a57600080fd5b505af115801561045e573d6000803e3d6000fd5b505050506040513d601f19601f82011682018060405250810190610482919061101c565b5050808061048f90611054565b91505061039a565b5050505050565b7f65d7a28e3265b37a6474929f336521b332c1681b933f6cb9f3376673440d862a6104c881610955565b610387610a83565b60009182526001602090815260408084206001600160a01b0393909316845291905290205460ff1690565b336000908152600460205260409020546001600160a01b031661058457604080516080810182523380825260016020808401828152600a85870190815242606087019081526000958652600490935295909320935184546001600160a01b0319166001600160a01b0390911617845591519083015591516002820155905160039091015561067a565b3360009081526004602052604090206002810154600182015411156105fa5760405162461bcd60e51b815260206004820152602660248201527f536f6272657061736f207375206c696d6974652064652070617274696369706160448201526563696f6e657360d01b606482015260840161033e565b60018101805490600061060c83611054565b919050555042816003015462015180610625919061106f565b116106725760405162461bcd60e51b815260206004820152601760248201527f41756e20657374612064656e74726f2064656c20646961000000000000000000604482015260640161033e565b426003909101555b6000610684610ac0565b9050600081600360009054906101000a90046001600160a01b03166001600160a01b03166318160ddd6040518163ffffffff1660e01b815260040160206040518083038186803b1580156106d757600080fd5b505afa1580156106eb573d6000803e3d6000fd5b505050506040513d601f19601f8201168201806040525081019061070f9190611087565b610719919061106f565b905069d3c21bcecceda10000008111156107855760405162461bcd60e51b815260206004820152602760248201527f536f6272657061736f20656c206d696c6c6f6e20646520746f6b656e7320656e60448201526620737570706c7960c81b606482015260840161033e565b6003546040516370a0823160e01b815230600482015283916001600160a01b0316906370a082319060240160206040518083038186803b1580156107c857600080fd5b505afa1580156107dc573d6000803e3d6000fd5b505050506040513d601f19601f820116820180604052508101906108009190611087565b101561084e5760405162461bcd60e51b815260206004820152601a60248201527f41697264726f70205343206e6f207469656e6520746f6b656e73000000000000604482015260640161033e565b60035460405163a9059cbb60e01b8152336004820152602481018490526001600160a01b039091169063a9059cbb90604401602060405180830381600087803b15801561089a57600080fd5b505af11580156108ae573d6000803e3d6000fd5b505050506040513d601f19601f820116820180604052508101906108d2919061101c565b506001600160a01b038316158015906108f457506001600160a01b0383163314155b156102cd576001600160a01b038316600090815260046020526040812060020180546003929061092590849061106f565b9091555050505050565b6000828152600160208190526040909120015461094b81610955565b6102cd83836109ca565b6103878133610b32565b61096982826104d0565b6103515760008281526001602081815260408084206001600160a01b0386168086529252808420805460ff19169093179092559051339285917f2f8788117e7eff1d82e926ec794901d17c78024a50270940304540a733656f0d9190a45050565b6109d482826104d0565b156103515760008281526001602090815260408083206001600160a01b0385168085529252808320805460ff1916905551339285917ff6391f5c32d9c69d2a47ea670b442974b53935d1edc7fd64eb21e047a839171b9190a45050565b610a39610b96565b6000805460ff191690557f5db9ee0a495bf2e6ff9c91a7834c1ba4fdd244a5e8aa4e537bd38aeae4b073aa335b6040516001600160a01b03909116815260200160405180910390a1565b610a8b610be1565b6000805460ff191660011790557f62e78cea01bee320cd4e420270b5ea74000d11b0c9f74754ebdbfc544b05a258610a663390565b6000610fa04233604051602001610af392919091825260601b6bffffffffffffffffffffffff1916602082015260340190565b6040516020818303038152906040528051906020012060001c610b1691906110a0565b610b22906103e861106f565b610b2d90600161106f565b905090565b610b3c82826104d0565b61035157610b54816001600160a01b03166014610c27565b610b5f836020610c27565b604051602001610b709291906110f2565b60408051601f198184030181529082905262461bcd60e51b825261033e91600401611167565b60005460ff16610bdf5760405162461bcd60e51b815260206004820152601460248201527314185d5cd8589b194e881b9bdd081c185d5cd95960621b604482015260640161033e565b565b60005460ff1615610bdf5760405162461bcd60e51b815260206004820152601060248201526f14185d5cd8589b194e881c185d5cd95960821b604482015260640161033e565b60606000610c3683600261119a565b610c4190600261106f565b67ffffffffffffffff811115610c5957610c59610e70565b6040519080825280601f01601f191660200182016040528015610c83576020820181803683370190505b509050600360fc1b81600081518110610c9e57610c9e611006565b60200101906001600160f81b031916908160001a905350600f60fb1b81600181518110610ccd57610ccd611006565b60200101906001600160f81b031916908160001a9053506000610cf184600261119a565b610cfc90600161106f565b90505b6001811115610d74576f181899199a1a9b1b9c1cb0b131b232b360811b85600f1660108110610d3057610d30611006565b1a60f81b828281518110610d4657610d46611006565b60200101906001600160f81b031916908160001a90535060049490941c93610d6d816111b9565b9050610cff565b508315610dc35760405162461bcd60e51b815260206004820181905260248201527f537472696e67733a20686578206c656e67746820696e73756666696369656e74604482015260640161033e565b9392505050565b600060208284031215610ddc57600080fd5b81356001600160e01b031981168114610dc357600080fd5b600060208284031215610e0657600080fd5b5035919050565b80356001600160a01b0381168114610e2457600080fd5b919050565b60008060408385031215610e3c57600080fd5b82359150610e4c60208401610e0d565b90509250929050565b600060208284031215610e6757600080fd5b610dc382610e0d565b634e487b7160e01b600052604160045260246000fd5b604051601f8201601f1916810167ffffffffffffffff81118282101715610eaf57610eaf610e70565b604052919050565b600067ffffffffffffffff821115610ed157610ed1610e70565b5060051b60200190565b600082601f830112610eec57600080fd5b81356020610f01610efc83610eb7565b610e86565b82815260059290921b84018101918181019086841115610f2057600080fd5b8286015b84811015610f3b5780358352918301918301610f24565b509695505050505050565b60008060408385031215610f5957600080fd5b823567ffffffffffffffff80821115610f7157600080fd5b818501915085601f830112610f8557600080fd5b81356020610f95610efc83610eb7565b82815260059290921b84018101918181019089841115610fb457600080fd5b948201945b83861015610fd957610fca86610e0d565b82529482019490820190610fb9565b96505086013592505080821115610fef57600080fd5b50610ffc85828601610edb565b9150509250929050565b634e487b7160e01b600052603260045260246000fd5b60006020828403121561102e57600080fd5b81518015158114610dc357600080fd5b634e487b7160e01b600052601160045260246000fd5b60006000198214156110685761106861103e565b5060010190565b600082198211156110825761108261103e565b500190565b60006020828403121561109957600080fd5b5051919050565b6000826110bd57634e487b7160e01b600052601260045260246000fd5b500690565b60005b838110156110dd5781810151838201526020016110c5565b838111156110ec576000848401525b50505050565b7f416363657373436f6e74726f6c3a206163636f756e742000000000000000000081526000835161112a8160178501602088016110c2565b7001034b99036b4b9b9b4b733903937b6329607d1b601791840191820152835161115b8160288401602088016110c2565b01602801949350505050565b60208152600082518060208401526111868160408501602087016110c2565b601f01601f19169190910160400192915050565b60008160001904831182151516156111b4576111b461103e565b500290565b6000816111c8576111c861103e565b50600019019056fea2646970667358221220da49763c3f23eaf2bf7483e36a62bf3214c6d3f92537649dcbafa7ed61e6011364736f6c63430008090033",
    "sourcePath": "/Volumes/SSD 1TB/Projects/Blockchain/solidity-utec-coding/contracts/AirDropTwoooo.sol",
    "compiler": {
        "name": "solc",
        "version": "0.8.9+commit.e5eed63a"
    },
    "functionHashes": {
        "DEFAULT_ADMIN_ROLE()": "a217fddf",
        "PAUSER_ROLE()": "e63ab1e9",
        "deliverInBatch(address[],uint256[])": "62c1d09e",
        "getRoleAdmin(bytes32)": "248a9ca3",
        "grantRole(bytes32,address)": "2f2ff15d",
        "hasRole(bytes32,address)": "91d14854",
        "participantes(address)": "2fffcf96",
        "participateInAirdrop(address)": "a4dfc6e0",
        "pause()": "8456cb59",
        "paused()": "5c975abb",
        "renounceRole(bytes32,address)": "36568abe",
        "revokeRole(bytes32,address)": "d547741f",
        "supportsInterface(bytes4)": "01ffc9a7",
        "unpause()": "3f4ba83a"
    },
    "gasEstimates": {
        "creation": {
            "codeDepositCost": "922800",
            "executionCost": "infinite",
            "totalCost": "infinite"
        },
        "external": {
            "DEFAULT_ADMIN_ROLE()": "217",
            "PAUSER_ROLE()": "283",
            "deliverInBatch(address[],uint256[])": "infinite",
            "getRoleAdmin(bytes32)": "2496",
            "grantRole(bytes32,address)": "infinite",
            "hasRole(bytes32,address)": "2721",
            "participantes(address)": "8986",
            "participateInAirdrop(address)": "infinite",
            "pause()": "infinite",
            "paused()": "2382",
            "renounceRole(bytes32,address)": "29046",
            "revokeRole(bytes32,address)": "infinite",
            "supportsInterface(bytes4)": "450",
            "unpause()": "infinite"
        },
        "internal": {
            "_getRandomEntre1000y5000()": "infinite"
        }
    }
}