{
    "contractName": "MiPrimerNft",
    "abi": [
        {
            "inputs": [],
            "stateMutability": "nonpayable",
            "type": "constructor"
        },
        {
            "anonymous": false,
            "inputs": [
                {
                    "indexed": true,
                    "internalType": "address",
                    "name": "owner",
                    "type": "address"
                },
                {
                    "indexed": true,
                    "internalType": "address",
                    "name": "approved",
                    "type": "address"
                },
                {
                    "indexed": true,
                    "internalType": "uint256",
                    "name": "tokenId",
                    "type": "uint256"
                }
            ],
            "name": "Approval",
            "type": "event"
        },
        {
            "anonymous": false,
            "inputs": [
                {
                    "indexed": true,
                    "internalType": "address",
                    "name": "owner",
                    "type": "address"
                },
                {
                    "indexed": true,
                    "internalType": "address",
                    "name": "operator",
                    "type": "address"
                },
                {
                    "indexed": false,
                    "internalType": "bool",
                    "name": "approved",
                    "type": "bool"
                }
            ],
            "name": "ApprovalForAll",
            "type": "event"
        },
        {
            "anonymous": false,
            "inputs": [
                {
                    "indexed": false,
                    "internalType": "address",
                    "name": "account",
                    "type": "address"
                }
            ],
            "name": "Paused",
            "type": "event"
        },
        {
            "anonymous": false,
            "inputs": [
                {
                    "indexed": true,
                    "internalType": "bytes32",
                    "name": "role",
                    "type": "bytes32"
                },
                {
                    "indexed": true,
                    "internalType": "bytes32",
                    "name": "previousAdminRole",
                    "type": "bytes32"
                },
                {
                    "indexed": true,
                    "internalType": "bytes32",
                    "name": "newAdminRole",
                    "type": "bytes32"
                }
            ],
            "name": "RoleAdminChanged",
            "type": "event"
        },
        {
            "anonymous": false,
            "inputs": [
                {
                    "indexed": true,
                    "internalType": "bytes32",
                    "name": "role",
                    "type": "bytes32"
                },
                {
                    "indexed": true,
                    "internalType": "address",
                    "name": "account",
                    "type": "address"
                },
                {
                    "indexed": true,
                    "internalType": "address",
                    "name": "sender",
                    "type": "address"
                }
            ],
            "name": "RoleGranted",
            "type": "event"
        },
        {
            "anonymous": false,
            "inputs": [
                {
                    "indexed": true,
                    "internalType": "bytes32",
                    "name": "role",
                    "type": "bytes32"
                },
                {
                    "indexed": true,
                    "internalType": "address",
                    "name": "account",
                    "type": "address"
                },
                {
                    "indexed": true,
                    "internalType": "address",
                    "name": "sender",
                    "type": "address"
                }
            ],
            "name": "RoleRevoked",
            "type": "event"
        },
        {
            "anonymous": false,
            "inputs": [
                {
                    "indexed": true,
                    "internalType": "address",
                    "name": "from",
                    "type": "address"
                },
                {
                    "indexed": true,
                    "internalType": "address",
                    "name": "to",
                    "type": "address"
                },
                {
                    "indexed": true,
                    "internalType": "uint256",
                    "name": "tokenId",
                    "type": "uint256"
                }
            ],
            "name": "Transfer",
            "type": "event"
        },
        {
            "anonymous": false,
            "inputs": [
                {
                    "indexed": false,
                    "internalType": "address",
                    "name": "account",
                    "type": "address"
                }
            ],
            "name": "Unpaused",
            "type": "event"
        },
        {
            "inputs": [],
            "name": "DEFAULT_ADMIN_ROLE",
            "outputs": [
                {
                    "internalType": "bytes32",
                    "name": "",
                    "type": "bytes32"
                }
            ],
            "stateMutability": "view",
            "type": "function"
        },
        {
            "inputs": [],
            "name": "MINTER_ROLE",
            "outputs": [
                {
                    "internalType": "bytes32",
                    "name": "",
                    "type": "bytes32"
                }
            ],
            "stateMutability": "view",
            "type": "function"
        },
        {
            "inputs": [],
            "name": "PAUSER_ROLE",
            "outputs": [
                {
                    "internalType": "bytes32",
                    "name": "",
                    "type": "bytes32"
                }
            ],
            "stateMutability": "view",
            "type": "function"
        },
        {
            "inputs": [
                {
                    "internalType": "address",
                    "name": "to",
                    "type": "address"
                },
                {
                    "internalType": "uint256",
                    "name": "tokenId",
                    "type": "uint256"
                }
            ],
            "name": "approve",
            "outputs": [],
            "stateMutability": "nonpayable",
            "type": "function"
        },
        {
            "inputs": [
                {
                    "internalType": "address",
                    "name": "owner",
                    "type": "address"
                }
            ],
            "name": "balanceOf",
            "outputs": [
                {
                    "internalType": "uint256",
                    "name": "",
                    "type": "uint256"
                }
            ],
            "stateMutability": "view",
            "type": "function"
        },
        {
            "inputs": [
                {
                    "internalType": "uint256",
                    "name": "tokenId",
                    "type": "uint256"
                }
            ],
            "name": "burn",
            "outputs": [],
            "stateMutability": "nonpayable",
            "type": "function"
        },
        {
            "inputs": [
                {
                    "internalType": "uint256",
                    "name": "tokenId",
                    "type": "uint256"
                }
            ],
            "name": "getApproved",
            "outputs": [
                {
                    "internalType": "address",
                    "name": "",
                    "type": "address"
                }
            ],
            "stateMutability": "view",
            "type": "function"
        },
        {
            "inputs": [
                {
                    "internalType": "bytes32",
                    "name": "role",
                    "type": "bytes32"
                }
            ],
            "name": "getRoleAdmin",
            "outputs": [
                {
                    "internalType": "bytes32",
                    "name": "",
                    "type": "bytes32"
                }
            ],
            "stateMutability": "view",
            "type": "function"
        },
        {
            "inputs": [
                {
                    "internalType": "bytes32",
                    "name": "role",
                    "type": "bytes32"
                },
                {
                    "internalType": "address",
                    "name": "account",
                    "type": "address"
                }
            ],
            "name": "grantRole",
            "outputs": [],
            "stateMutability": "nonpayable",
            "type": "function"
        },
        {
            "inputs": [
                {
                    "internalType": "bytes32",
                    "name": "role",
                    "type": "bytes32"
                },
                {
                    "internalType": "address",
                    "name": "account",
                    "type": "address"
                }
            ],
            "name": "hasRole",
            "outputs": [
                {
                    "internalType": "bool",
                    "name": "",
                    "type": "bool"
                }
            ],
            "stateMutability": "view",
            "type": "function"
        },
        {
            "inputs": [
                {
                    "internalType": "address",
                    "name": "owner",
                    "type": "address"
                },
                {
                    "internalType": "address",
                    "name": "operator",
                    "type": "address"
                }
            ],
            "name": "isApprovedForAll",
            "outputs": [
                {
                    "internalType": "bool",
                    "name": "",
                    "type": "bool"
                }
            ],
            "stateMutability": "view",
            "type": "function"
        },
        {
            "inputs": [],
            "name": "name",
            "outputs": [
                {
                    "internalType": "string",
                    "name": "",
                    "type": "string"
                }
            ],
            "stateMutability": "view",
            "type": "function"
        },
        {
            "inputs": [
                {
                    "internalType": "uint256",
                    "name": "tokenId",
                    "type": "uint256"
                }
            ],
            "name": "ownerOf",
            "outputs": [
                {
                    "internalType": "address",
                    "name": "",
                    "type": "address"
                }
            ],
            "stateMutability": "view",
            "type": "function"
        },
        {
            "inputs": [],
            "name": "pause",
            "outputs": [],
            "stateMutability": "nonpayable",
            "type": "function"
        },
        {
            "inputs": [],
            "name": "paused",
            "outputs": [
                {
                    "internalType": "bool",
                    "name": "",
                    "type": "bool"
                }
            ],
            "stateMutability": "view",
            "type": "function"
        },
        {
            "inputs": [
                {
                    "internalType": "bytes32",
                    "name": "role",
                    "type": "bytes32"
                },
                {
                    "internalType": "address",
                    "name": "account",
                    "type": "address"
                }
            ],
            "name": "renounceRole",
            "outputs": [],
            "stateMutability": "nonpayable",
            "type": "function"
        },
        {
            "inputs": [
                {
                    "internalType": "bytes32",
                    "name": "role",
                    "type": "bytes32"
                },
                {
                    "internalType": "address",
                    "name": "account",
                    "type": "address"
                }
            ],
            "name": "revokeRole",
            "outputs": [],
            "stateMutability": "nonpayable",
            "type": "function"
        },
        {
            "inputs": [
                {
                    "internalType": "address",
                    "name": "to",
                    "type": "address"
                }
            ],
            "name": "safeMint",
            "outputs": [],
            "stateMutability": "nonpayable",
            "type": "function"
        },
        {
            "inputs": [
                {
                    "internalType": "address",
                    "name": "from",
                    "type": "address"
                },
                {
                    "internalType": "address",
                    "name": "to",
                    "type": "address"
                },
                {
                    "internalType": "uint256",
                    "name": "tokenId",
                    "type": "uint256"
                }
            ],
            "name": "safeTransferFrom",
            "outputs": [],
            "stateMutability": "nonpayable",
            "type": "function"
        },
        {
            "inputs": [
                {
                    "internalType": "address",
                    "name": "from",
                    "type": "address"
                },
                {
                    "internalType": "address",
                    "name": "to",
                    "type": "address"
                },
                {
                    "internalType": "uint256",
                    "name": "tokenId",
                    "type": "uint256"
                },
                {
                    "internalType": "bytes",
                    "name": "data",
                    "type": "bytes"
                }
            ],
            "name": "safeTransferFrom",
            "outputs": [],
            "stateMutability": "nonpayable",
            "type": "function"
        },
        {
            "inputs": [
                {
                    "internalType": "address",
                    "name": "operator",
                    "type": "address"
                },
                {
                    "internalType": "bool",
                    "name": "approved",
                    "type": "bool"
                }
            ],
            "name": "setApprovalForAll",
            "outputs": [],
            "stateMutability": "nonpayable",
            "type": "function"
        },
        {
            "inputs": [
                {
                    "internalType": "bytes4",
                    "name": "interfaceId",
                    "type": "bytes4"
                }
            ],
            "name": "supportsInterface",
            "outputs": [
                {
                    "internalType": "bool",
                    "name": "",
                    "type": "bool"
                }
            ],
            "stateMutability": "view",
            "type": "function"
        },
        {
            "inputs": [],
            "name": "symbol",
            "outputs": [
                {
                    "internalType": "string",
                    "name": "",
                    "type": "string"
                }
            ],
            "stateMutability": "view",
            "type": "function"
        },
        {
            "inputs": [
                {
                    "internalType": "uint256",
                    "name": "tokenId",
                    "type": "uint256"
                }
            ],
            "name": "tokenURI",
            "outputs": [
                {
                    "internalType": "string",
                    "name": "",
                    "type": "string"
                }
            ],
            "stateMutability": "view",
            "type": "function"
        },
        {
            "inputs": [
                {
                    "internalType": "address",
                    "name": "from",
                    "type": "address"
                },
                {
                    "internalType": "address",
                    "name": "to",
                    "type": "address"
                },
                {
                    "internalType": "uint256",
                    "name": "tokenId",
                    "type": "uint256"
                }
            ],
            "name": "transferFrom",
            "outputs": [],
            "stateMutability": "nonpayable",
            "type": "function"
        },
        {
            "inputs": [],
            "name": "unpause",
            "outputs": [],
            "stateMutability": "nonpayable",
            "type": "function"
        }
    ],
    "bytecode": "60806040523480156200001157600080fd5b50604080518082018252600b81526a135a541c9a5b595c93999d60aa1b60208083019182528351808501909452600684526513541493919560d21b908401528151919291620000639160009162000196565b5080516200007990600190602084019062000196565b50506006805460ff191690555062000093600033620000f1565b620000bf7f65d7a28e3265b37a6474929f336521b332c1681b933f6cb9f3376673440d862a33620000f1565b620000eb7f9f2df0fed2c77648de5860a4cc508cd0818c85b8b8a1ab4ceeef8d981c8956a633620000f1565b62000279565b60008281526007602090815260408083206001600160a01b038516845290915290205460ff16620001925760008281526007602090815260408083206001600160a01b03851684529091529020805460ff19166001179055620001513390565b6001600160a01b0316816001600160a01b0316837f2f8788117e7eff1d82e926ec794901d17c78024a50270940304540a733656f0d60405160405180910390a45b5050565b828054620001a4906200023c565b90600052602060002090601f016020900481019282620001c8576000855562000213565b82601f10620001e357805160ff191683800117855562000213565b8280016001018555821562000213579182015b8281111562000213578251825591602001919060010190620001f6565b506200022192915062000225565b5090565b5b8082111562000221576000815560010162000226565b600181811c908216806200025157607f821691505b602082108114156200027357634e487b7160e01b600052602260045260246000fd5b50919050565b611c9280620002896000396000f3fe608060405234801561001057600080fd5b506004361061018e5760003560e01c80636352211e116100de578063a22cb46511610097578063d539139311610071578063d539139314610350578063d547741f14610377578063e63ab1e91461038a578063e985e9c5146103b157600080fd5b8063a22cb46514610317578063b88d4fde1461032a578063c87b56dd1461033d57600080fd5b80636352211e146102c657806370a08231146102d95780638456cb59146102ec57806391d14854146102f457806395d89b4114610307578063a217fddf1461030f57600080fd5b80632f2ff15d1161014b57806340d097c31161012557806340d097c31461028257806342842e0e1461029557806342966c68146102a85780635c975abb146102bb57600080fd5b80632f2ff15d1461025457806336568abe146102675780633f4ba83a1461027a57600080fd5b806301ffc9a71461019357806306fdde03146101bb578063081812fc146101d0578063095ea7b3146101fb57806323b872dd14610210578063248a9ca314610223575b600080fd5b6101a66101a13660046116a1565b6103ed565b60405190151581526020015b60405180910390f35b6101c36103fe565b6040516101b29190611716565b6101e36101de366004611729565b610490565b6040516001600160a01b0390911681526020016101b2565b61020e61020936600461175e565b6104b7565b005b61020e61021e366004611788565b6105d2565b610246610231366004611729565b60009081526007602052604090206001015490565b6040519081526020016101b2565b61020e6102623660046117c4565b610604565b61020e6102753660046117c4565b610629565b61020e6106a7565b61020e6102903660046117f0565b6106dc565b61020e6102a3366004611788565b61072b565b61020e6102b6366004611729565b610746565b60065460ff166101a6565b6101e36102d4366004611729565b610774565b6102466102e73660046117f0565b6107d4565b61020e61085a565b6101a66103023660046117c4565b61088c565b6101c36108b7565b610246600081565b61020e61032536600461180b565b6108c6565b61020e61033836600461185d565b6108d1565b6101c361034b366004611729565b610909565b6102467f9f2df0fed2c77648de5860a4cc508cd0818c85b8b8a1ab4ceeef8d981c8956a681565b61020e6103853660046117c4565b610970565b6102467f65d7a28e3265b37a6474929f336521b332c1681b933f6cb9f3376673440d862a81565b6101a66103bf366004611939565b6001600160a01b03918216600090815260056020908152604080832093909416825291909152205460ff1690565b60006103f882610995565b92915050565b60606000805461040d90611963565b80601f016020809104026020016040519081016040528092919081815260200182805461043990611963565b80156104865780601f1061045b57610100808354040283529160200191610486565b820191906000526020600020905b81548152906001019060200180831161046957829003601f168201915b5050505050905090565b600061049b826109ba565b506000908152600460205260409020546001600160a01b031690565b60006104c282610774565b9050806001600160a01b0316836001600160a01b031614156105355760405162461bcd60e51b815260206004820152602160248201527f4552433732313a20617070726f76616c20746f2063757272656e74206f776e656044820152603960f91b60648201526084015b60405180910390fd5b336001600160a01b0382161480610551575061055181336103bf565b6105c35760405162461bcd60e51b815260206004820152603e60248201527f4552433732313a20617070726f76652063616c6c6572206973206e6f7420746f60448201527f6b656e206f776e6572206e6f7220617070726f76656420666f7220616c6c0000606482015260840161052c565b6105cd8383610a19565b505050565b6105dd335b82610a87565b6105f95760405162461bcd60e51b815260040161052c9061199e565b6105cd838383610b06565b60008281526007602052604090206001015461061f81610cad565b6105cd8383610cb7565b6001600160a01b03811633146106995760405162461bcd60e51b815260206004820152602f60248201527f416363657373436f6e74726f6c3a2063616e206f6e6c792072656e6f756e636560448201526e103937b632b9903337b91039b2b63360891b606482015260840161052c565b6106a38282610d3d565b5050565b7f65d7a28e3265b37a6474929f336521b332c1681b933f6cb9f3376673440d862a6106d181610cad565b6106d9610da4565b50565b7f9f2df0fed2c77648de5860a4cc508cd0818c85b8b8a1ab4ceeef8d981c8956a661070681610cad565b600061071160085490565b9050610721600880546001019055565b6105cd8382610df6565b6105cd838383604051806020016040528060008152506108d1565b61074f336105d7565b61076b5760405162461bcd60e51b815260040161052c9061199e565b6106d981610e10565b6000818152600260205260408120546001600160a01b0316806103f85760405162461bcd60e51b8152602060048201526018602482015277115490cdcc8c4e881a5b9d985b1a59081d1bdad95b88125160421b604482015260640161052c565b60006001600160a01b03821661083e5760405162461bcd60e51b815260206004820152602960248201527f4552433732313a2061646472657373207a65726f206973206e6f7420612076616044820152683634b21037bbb732b960b91b606482015260840161052c565b506001600160a01b031660009081526003602052604090205490565b7f65d7a28e3265b37a6474929f336521b332c1681b933f6cb9f3376673440d862a61088481610cad565b6106d9610eb7565b60009182526007602090815260408084206001600160a01b0393909316845291905290205460ff1690565b60606001805461040d90611963565b6106a3338383610ef4565b6108db3383610a87565b6108f75760405162461bcd60e51b815260040161052c9061199e565b61090384848484610fc3565b50505050565b6060610914826109ba565b600061091e610ff6565b9050600081511161093e5760405180602001604052806000815250610969565b8061094884611016565b6040516020016109599291906119ec565b6040516020818303038152906040525b9392505050565b60008281526007602052604090206001015461098b81610cad565b6105cd8383610d3d565b60006001600160e01b03198216637965db0b60e01b14806103f857506103f882611114565b6000818152600260205260409020546001600160a01b03166106d95760405162461bcd60e51b8152602060048201526018602482015277115490cdcc8c4e881a5b9d985b1a59081d1bdad95b88125160421b604482015260640161052c565b600081815260046020526040902080546001600160a01b0319166001600160a01b0384169081179091558190610a4e82610774565b6001600160a01b03167f8c5be1e5ebec7d5bd14f71427d1e84f3dd0314c0f7b2291e5b200ac8c7c3b92560405160405180910390a45050565b600080610a9383610774565b9050806001600160a01b0316846001600160a01b03161480610ada57506001600160a01b0380821660009081526005602090815260408083209388168352929052205460ff165b80610afe5750836001600160a01b0316610af384610490565b6001600160a01b0316145b949350505050565b826001600160a01b0316610b1982610774565b6001600160a01b031614610b7d5760405162461bcd60e51b815260206004820152602560248201527f4552433732313a207472616e736665722066726f6d20696e636f72726563742060448201526437bbb732b960d91b606482015260840161052c565b6001600160a01b038216610bdf5760405162461bcd60e51b8152602060048201526024808201527f4552433732313a207472616e7366657220746f20746865207a65726f206164646044820152637265737360e01b606482015260840161052c565b610bea838383611164565b610bf5600082610a19565b6001600160a01b0383166000908152600360205260408120805460019290610c1e908490611a31565b90915550506001600160a01b0382166000908152600360205260408120805460019290610c4c908490611a48565b909155505060008181526002602052604080822080546001600160a01b0319166001600160a01b0386811691821790925591518493918716917fddf252ad1be2c89b69c2b068fc378daa952ba7f163c4a11628f55a4df523b3ef91a4505050565b6106d9813361116c565b610cc1828261088c565b6106a35760008281526007602090815260408083206001600160a01b03851684529091529020805460ff19166001179055610cf93390565b6001600160a01b0316816001600160a01b0316837f2f8788117e7eff1d82e926ec794901d17c78024a50270940304540a733656f0d60405160405180910390a45050565b610d47828261088c565b156106a35760008281526007602090815260408083206001600160a01b0385168085529252808320805460ff1916905551339285917ff6391f5c32d9c69d2a47ea670b442974b53935d1edc7fd64eb21e047a839171b9190a45050565b610dac6111d0565b6006805460ff191690557f5db9ee0a495bf2e6ff9c91a7834c1ba4fdd244a5e8aa4e537bd38aeae4b073aa335b6040516001600160a01b03909116815260200160405180910390a1565b6106a382826040518060200160405280600081525061121b565b6000610e1b82610774565b9050610e2981600084611164565b610e34600083610a19565b6001600160a01b0381166000908152600360205260408120805460019290610e5d908490611a31565b909155505060008281526002602052604080822080546001600160a01b0319169055518391906001600160a01b038416907fddf252ad1be2c89b69c2b068fc378daa952ba7f163c4a11628f55a4df523b3ef908390a45050565b610ebf61124e565b6006805460ff191660011790557f62e78cea01bee320cd4e420270b5ea74000d11b0c9f74754ebdbfc544b05a258610dd93390565b816001600160a01b0316836001600160a01b03161415610f565760405162461bcd60e51b815260206004820152601960248201527f4552433732313a20617070726f766520746f2063616c6c657200000000000000604482015260640161052c565b6001600160a01b03838116600081815260056020908152604080832094871680845294825291829020805460ff191686151590811790915591519182527f17307eab39ab6107e8899845ad3d59bd9653f200f220920489ca2b5937696c31910160405180910390a3505050565b610fce848484610b06565b610fda84848484611294565b6109035760405162461bcd60e51b815260040161052c90611a60565b6060604051806060016040528060368152602001611c2760369139905090565b60608161103a5750506040805180820190915260018152600360fc1b602082015290565b8160005b8115611064578061104e81611ab2565b915061105d9050600a83611ae3565b915061103e565b60008167ffffffffffffffff81111561107f5761107f611847565b6040519080825280601f01601f1916602001820160405280156110a9576020820181803683370190505b5090505b8415610afe576110be600183611a31565b91506110cb600a86611af7565b6110d6906030611a48565b60f81b8183815181106110eb576110eb611b0b565b60200101906001600160f81b031916908160001a90535061110d600a86611ae3565b94506110ad565b60006001600160e01b031982166380ac58cd60e01b148061114557506001600160e01b03198216635b5e139f60e01b145b806103f857506301ffc9a760e01b6001600160e01b03198316146103f8565b6105cd61124e565b611176828261088c565b6106a35761118e816001600160a01b031660146113a1565b6111998360206113a1565b6040516020016111aa929190611b21565b60408051601f198184030181529082905262461bcd60e51b825261052c91600401611716565b60065460ff166112195760405162461bcd60e51b815260206004820152601460248201527314185d5cd8589b194e881b9bdd081c185d5cd95960621b604482015260640161052c565b565b611225838361153d565b6112326000848484611294565b6105cd5760405162461bcd60e51b815260040161052c90611a60565b60065460ff16156112195760405162461bcd60e51b815260206004820152601060248201526f14185d5cd8589b194e881c185d5cd95960821b604482015260640161052c565b60006001600160a01b0384163b1561139657604051630a85bd0160e11b81526001600160a01b0385169063150b7a02906112d8903390899088908890600401611b96565b602060405180830381600087803b1580156112f257600080fd5b505af1925050508015611322575060408051601f3d908101601f1916820190925261131f91810190611bd3565b60015b61137c573d808015611350576040519150601f19603f3d011682016040523d82523d6000602084013e611355565b606091505b5080516113745760405162461bcd60e51b815260040161052c90611a60565b805181602001fd5b6001600160e01b031916630a85bd0160e11b149050610afe565b506001949350505050565b606060006113b0836002611bf0565b6113bb906002611a48565b67ffffffffffffffff8111156113d3576113d3611847565b6040519080825280601f01601f1916602001820160405280156113fd576020820181803683370190505b509050600360fc1b8160008151811061141857611418611b0b565b60200101906001600160f81b031916908160001a905350600f60fb1b8160018151811061144757611447611b0b565b60200101906001600160f81b031916908160001a905350600061146b846002611bf0565b611476906001611a48565b90505b60018111156114ee576f181899199a1a9b1b9c1cb0b131b232b360811b85600f16601081106114aa576114aa611b0b565b1a60f81b8282815181106114c0576114c0611b0b565b60200101906001600160f81b031916908160001a90535060049490941c936114e781611c0f565b9050611479565b5083156109695760405162461bcd60e51b815260206004820181905260248201527f537472696e67733a20686578206c656e67746820696e73756666696369656e74604482015260640161052c565b6001600160a01b0382166115935760405162461bcd60e51b815260206004820181905260248201527f4552433732313a206d696e7420746f20746865207a65726f2061646472657373604482015260640161052c565b6000818152600260205260409020546001600160a01b0316156115f85760405162461bcd60e51b815260206004820152601c60248201527f4552433732313a20746f6b656e20616c7265616479206d696e74656400000000604482015260640161052c565b61160460008383611164565b6001600160a01b038216600090815260036020526040812080546001929061162d908490611a48565b909155505060008181526002602052604080822080546001600160a01b0319166001600160a01b03861690811790915590518392907fddf252ad1be2c89b69c2b068fc378daa952ba7f163c4a11628f55a4df523b3ef908290a45050565b6001600160e01b0319811681146106d957600080fd5b6000602082840312156116b357600080fd5b81356109698161168b565b60005b838110156116d95781810151838201526020016116c1565b838111156109035750506000910152565b600081518084526117028160208601602086016116be565b601f01601f19169290920160200192915050565b60208152600061096960208301846116ea565b60006020828403121561173b57600080fd5b5035919050565b80356001600160a01b038116811461175957600080fd5b919050565b6000806040838503121561177157600080fd5b61177a83611742565b946020939093013593505050565b60008060006060848603121561179d57600080fd5b6117a684611742565b92506117b460208501611742565b9150604084013590509250925092565b600080604083850312156117d757600080fd5b823591506117e760208401611742565b90509250929050565b60006020828403121561180257600080fd5b61096982611742565b6000806040838503121561181e57600080fd5b61182783611742565b91506020830135801515811461183c57600080fd5b809150509250929050565b634e487b7160e01b600052604160045260246000fd5b6000806000806080858703121561187357600080fd5b61187c85611742565b935061188a60208601611742565b925060408501359150606085013567ffffffffffffffff808211156118ae57600080fd5b818701915087601f8301126118c257600080fd5b8135818111156118d4576118d4611847565b604051601f8201601f19908116603f011681019083821181831017156118fc576118fc611847565b816040528281528a602084870101111561191557600080fd5b82602086016020830137600060208483010152809550505050505092959194509250565b6000806040838503121561194c57600080fd5b61195583611742565b91506117e760208401611742565b600181811c9082168061197757607f821691505b6020821081141561199857634e487b7160e01b600052602260045260246000fd5b50919050565b6020808252602e908201527f4552433732313a2063616c6c6572206973206e6f7420746f6b656e206f776e6560408201526d1c881b9bdc88185c1c1c9bdd995960921b606082015260800190565b600083516119fe8184602088016116be565b835190830190611a128183602088016116be565b01949350505050565b634e487b7160e01b600052601160045260246000fd5b600082821015611a4357611a43611a1b565b500390565b60008219821115611a5b57611a5b611a1b565b500190565b60208082526032908201527f4552433732313a207472616e7366657220746f206e6f6e20455243373231526560408201527131b2b4bb32b91034b6b83632b6b2b73a32b960711b606082015260800190565b6000600019821415611ac657611ac6611a1b565b5060010190565b634e487b7160e01b600052601260045260246000fd5b600082611af257611af2611acd565b500490565b600082611b0657611b06611acd565b500690565b634e487b7160e01b600052603260045260246000fd5b7f416363657373436f6e74726f6c3a206163636f756e7420000000000000000000815260008351611b598160178501602088016116be565b7001034b99036b4b9b9b4b733903937b6329607d1b6017918401918201528351611b8a8160288401602088016116be565b01602801949350505050565b6001600160a01b0385811682528416602082015260408101839052608060608201819052600090611bc9908301846116ea565b9695505050505050565b600060208284031215611be557600080fd5b81516109698161168b565b6000816000190483118215151615611c0a57611c0a611a1b565b500290565b600081611c1e57611c1e611a1b565b50600019019056fe697066733a2f2f516d626247676f39334d367972355753554d6a353353574e327643374c36614d5331475a53504e6b5652593865342fa2646970667358221220ccbe9cf88465bf863a86e4552234b368bbe4b3e121a377703efd1e51acc88b0064736f6c63430008090033",
    "sourcePath": "/Volumes/SSD 1TB/Projects/Blockchain/solidity-utec-coding/contracts/MiPrimerNft.sol",
    "compiler": {
        "name": "solc",
        "version": "0.8.9+commit.e5eed63a"
    },
    "functionHashes": {
        "DEFAULT_ADMIN_ROLE()": "a217fddf",
        "MINTER_ROLE()": "d5391393",
        "PAUSER_ROLE()": "e63ab1e9",
        "approve(address,uint256)": "095ea7b3",
        "balanceOf(address)": "70a08231",
        "burn(uint256)": "42966c68",
        "getApproved(uint256)": "081812fc",
        "getRoleAdmin(bytes32)": "248a9ca3",
        "grantRole(bytes32,address)": "2f2ff15d",
        "hasRole(bytes32,address)": "91d14854",
        "isApprovedForAll(address,address)": "e985e9c5",
        "name()": "06fdde03",
        "ownerOf(uint256)": "6352211e",
        "pause()": "8456cb59",
        "paused()": "5c975abb",
        "renounceRole(bytes32,address)": "36568abe",
        "revokeRole(bytes32,address)": "d547741f",
        "safeMint(address)": "40d097c3",
        "safeTransferFrom(address,address,uint256)": "42842e0e",
        "safeTransferFrom(address,address,uint256,bytes)": "b88d4fde",
        "setApprovalForAll(address,bool)": "a22cb465",
        "supportsInterface(bytes4)": "01ffc9a7",
        "symbol()": "95d89b41",
        "tokenURI(uint256)": "c87b56dd",
        "transferFrom(address,address,uint256)": "23b872dd",
        "unpause()": "3f4ba83a"
    },
    "gasEstimates": {
        "creation": {
            "codeDepositCost": "1462800",
            "executionCost": "infinite",
            "totalCost": "infinite"
        },
        "external": {
            "DEFAULT_ADMIN_ROLE()": "328",
            "MINTER_ROLE()": "239",
            "PAUSER_ROLE()": "283",
            "approve(address,uint256)": "infinite",
            "balanceOf(address)": "2634",
            "burn(uint256)": "infinite",
            "getApproved(uint256)": "4792",
            "getRoleAdmin(bytes32)": "2578",
            "grantRole(bytes32,address)": "infinite",
            "hasRole(bytes32,address)": "2743",
            "isApprovedForAll(address,address)": "infinite",
            "name()": "infinite",
            "ownerOf(uint256)": "2561",
            "pause()": "infinite",
            "paused()": "2404",
            "renounceRole(bytes32,address)": "29069",
            "revokeRole(bytes32,address)": "infinite",
            "safeMint(address)": "infinite",
            "safeTransferFrom(address,address,uint256)": "infinite",
            "safeTransferFrom(address,address,uint256,bytes)": "infinite",
            "setApprovalForAll(address,bool)": "26731",
            "supportsInterface(bytes4)": "infinite",
            "symbol()": "infinite",
            "tokenURI(uint256)": "infinite",
            "transferFrom(address,address,uint256)": "infinite",
            "unpause()": "infinite"
        },
        "internal": {
            "_baseURI()": "infinite",
            "_beforeTokenTransfer(address,address,uint256)": "infinite"
        }
    }
}