{
    "contractName": "AccessControlLearning",
    "abi": [
        {
            "inputs": [],
            "stateMutability": "nonpayable",
            "type": "constructor"
        },
        {
            "anonymous": false,
            "inputs": [
                {
                    "indexed": false,
                    "internalType": "address",
                    "name": "_prevOwner",
                    "type": "address"
                }
            ],
            "name": "RenounceOwnership",
            "type": "event"
        },
        {
            "anonymous": false,
            "inputs": [
                {
                    "indexed": false,
                    "internalType": "address",
                    "name": "_prevOwner",
                    "type": "address"
                },
                {
                    "indexed": false,
                    "internalType": "address",
                    "name": "_newOwner",
                    "type": "address"
                }
            ],
            "name": "TransferOwnership",
            "type": "event"
        },
        {
            "inputs": [],
            "name": "DEFAULT_ADMIN_ROLE",
            "outputs": [
                {
                    "internalType": "bytes32",
                    "name": "",
                    "type": "bytes32"
                }
            ],
            "stateMutability": "view",
            "type": "function"
        },
        {
            "inputs": [
                {
                    "internalType": "address",
                    "name": "_account",
                    "type": "address"
                },
                {
                    "internalType": "bytes32",
                    "name": "role",
                    "type": "bytes32"
                }
            ],
            "name": "grantRole",
            "outputs": [],
            "stateMutability": "nonpayable",
            "type": "function"
        },
        {
            "inputs": [
                {
                    "internalType": "address",
                    "name": "_account",
                    "type": "address"
                },
                {
                    "internalType": "bytes32",
                    "name": "_role",
                    "type": "bytes32"
                },
                {
                    "internalType": "uint256",
                    "name": "_limit",
                    "type": "uint256"
                }
            ],
            "name": "grantRoleTemporarily",
            "outputs": [],
            "stateMutability": "nonpayable",
            "type": "function"
        },
        {
            "inputs": [
                {
                    "internalType": "address",
                    "name": "_account",
                    "type": "address"
                },
                {
                    "internalType": "bytes32",
                    "name": "role",
                    "type": "bytes32"
                }
            ],
            "name": "hasRole",
            "outputs": [
                {
                    "internalType": "bool",
                    "name": "",
                    "type": "bool"
                }
            ],
            "stateMutability": "view",
            "type": "function"
        },
        {
            "inputs": [
                {
                    "internalType": "address",
                    "name": "_account",
                    "type": "address"
                },
                {
                    "internalType": "bytes32",
                    "name": "_role",
                    "type": "bytes32"
                }
            ],
            "name": "hasTemporaryRole",
            "outputs": [
                {
                    "internalType": "bool",
                    "name": "",
                    "type": "bool"
                },
                {
                    "internalType": "uint256",
                    "name": "",
                    "type": "uint256"
                }
            ],
            "stateMutability": "view",
            "type": "function"
        },
        {
            "inputs": [],
            "name": "renounceOwnership",
            "outputs": [],
            "stateMutability": "nonpayable",
            "type": "function"
        },
        {
            "inputs": [
                {
                    "internalType": "address",
                    "name": "_newOwner",
                    "type": "address"
                }
            ],
            "name": "transferOwnership",
            "outputs": [],
            "stateMutability": "nonpayable",
            "type": "function"
        }
    ],
    "bytecode": "608060405234801561001057600080fd5b50336000908152602081815260408083208380529091529020805460ff19166001179055610518806100436000396000f3fe608060405234801561001057600080fd5b506004361061007d5760003560e01c8063ac4ab3fb1161005b578063ac4ab3fb146100ba578063e412ac65146100dd578063ed119de0146100f0578063f2fde38b1461014057600080fd5b8063715018a614610082578063a217fddf1461008c578063ab2742dc146100a7575b600080fd5b61008a610153565b005b610094600081565b6040519081526020015b60405180910390f35b61008a6100b536600461042e565b6101d8565b6100cd6100c836600461042e565b61022f565b604051901515815260200161009e565b61008a6100eb366004610458565b610258565b6101296100fe36600461042e565b6001600160a01b03919091166000908152600160209081526040808320938352929052205480151591565b60408051921515835260208301919091520161009e565b61008a61014e36600461048b565b61037a565b600061015f338261022f565b6101845760405162461bcd60e51b815260040161017b906104ad565b60405180910390fd5b33600081815260208181526040808320838052825291829020805460ff1916905590519182527f78051f4d375fa5e34e0acac11b69c75d30c1414823705aded4dc11b9b6d70418910160405180910390a150565b60006101e4338261022f565b6102005760405162461bcd60e51b815260040161017b906104ad565b506001600160a01b0390911660009081526020818152604080832093835292905220805460ff19166001179055565b6001600160a01b0391909116600090815260208181526040808320938352929052205460ff1690565b6000610264338261022f565b6102805760405162461bcd60e51b815260040161017b906104ad565b60018210156102d15760405162461bcd60e51b815260206004820181905260248201527f456c206c696d697465206465626520736572206d61796f722071756520756e6f604482015260640161017b565b6001600160a01b0384166000908152600160209081526040808320868452909152902054806103525760405162461bcd60e51b815260206004820152602760248201527f45737461206375656e7461207961207469656e6520756e206c696d69746520616044820152667369676e61646f60c81b606482015260840161017b565b50506001600160a01b0390921660009081526001602090815260408083209383529290522055565b6000610386338261022f565b6103a25760405162461bcd60e51b815260040161017b906104ad565b336000908152602081815260408083208380529091528120805460ff191690556103cd9083906101d8565b604080513381526001600160a01b03841660208201527f5c486528ec3e3f0ea91181cff8116f02bfa350e03b8b6f12e00765adbb5af85c910160405180910390a15050565b80356001600160a01b038116811461042957600080fd5b919050565b6000806040838503121561044157600080fd5b61044a83610412565b946020939093013593505050565b60008060006060848603121561046d57600080fd5b61047684610412565b95602085013595506040909401359392505050565b60006020828403121561049d57600080fd5b6104a682610412565b9392505050565b6020808252818101527f4375656e7461206e6f207469656e6520656c20726f6c206e656365736172696f60408201526060019056fea264697066735822122043df60ce4e4804670c488f221ebca96a90e7e618a8723e4904e88d52e95e5d6f64736f6c63430008090033",
    "sourcePath": "/Volumes/SSD 1TB/Projects/Blockchain/solidity-utec-coding/contracts/learning/AccessControlLearning.sol",
    "compiler": {
        "name": "solc",
        "version": "0.8.9+commit.e5eed63a"
    },
    "functionHashes": {
        "DEFAULT_ADMIN_ROLE()": "a217fddf",
        "grantRole(address,bytes32)": "ab2742dc",
        "grantRoleTemporarily(address,bytes32,uint256)": "e412ac65",
        "hasRole(address,bytes32)": "ac4ab3fb",
        "hasTemporaryRole(address,bytes32)": "ed119de0",
        "renounceOwnership()": "715018a6",
        "transferOwnership(address)": "f2fde38b"
    },
    "gasEstimates": {
        "creation": {
            "codeDepositCost": "260800",
            "executionCost": "24661",
            "totalCost": "285461"
        },
        "external": {
            "DEFAULT_ADMIN_ROLE()": "207",
            "grantRole(address,bytes32)": "27067",
            "grantRoleTemporarily(address,bytes32,uint256)": "27253",
            "hasRole(address,bytes32)": "2657",
            "hasTemporaryRole(address,bytes32)": "2719",
            "renounceOwnership()": "27876",
            "transferOwnership(address)": "infinite"
        }
    }
}