{
    "contractName": "Airdrop",
    "abi": [
        {
            "inputs": [
                {
                    "internalType": "address",
                    "name": "_tokenAddress",
                    "type": "address"
                }
            ],
            "stateMutability": "nonpayable",
            "type": "constructor"
        },
        {
            "anonymous": false,
            "inputs": [
                {
                    "indexed": true,
                    "internalType": "bytes32",
                    "name": "role",
                    "type": "bytes32"
                },
                {
                    "indexed": true,
                    "internalType": "bytes32",
                    "name": "previousAdminRole",
                    "type": "bytes32"
                },
                {
                    "indexed": true,
                    "internalType": "bytes32",
                    "name": "newAdminRole",
                    "type": "bytes32"
                }
            ],
            "name": "RoleAdminChanged",
            "type": "event"
        },
        {
            "anonymous": false,
            "inputs": [
                {
                    "indexed": true,
                    "internalType": "bytes32",
                    "name": "role",
                    "type": "bytes32"
                },
                {
                    "indexed": true,
                    "internalType": "address",
                    "name": "account",
                    "type": "address"
                },
                {
                    "indexed": true,
                    "internalType": "address",
                    "name": "sender",
                    "type": "address"
                }
            ],
            "name": "RoleGranted",
            "type": "event"
        },
        {
            "anonymous": false,
            "inputs": [
                {
                    "indexed": true,
                    "internalType": "bytes32",
                    "name": "role",
                    "type": "bytes32"
                },
                {
                    "indexed": true,
                    "internalType": "address",
                    "name": "account",
                    "type": "address"
                },
                {
                    "indexed": true,
                    "internalType": "address",
                    "name": "sender",
                    "type": "address"
                }
            ],
            "name": "RoleRevoked",
            "type": "event"
        },
        {
            "inputs": [],
            "name": "DEFAULT_ADMIN_ROLE",
            "outputs": [
                {
                    "internalType": "bytes32",
                    "name": "",
                    "type": "bytes32"
                }
            ],
            "stateMutability": "view",
            "type": "function"
        },
        {
            "inputs": [
                {
                    "internalType": "address[]",
                    "name": "_addresses",
                    "type": "address[]"
                }
            ],
            "name": "addToBlueListBatch",
            "outputs": [],
            "stateMutability": "nonpayable",
            "type": "function"
        },
        {
            "inputs": [
                {
                    "internalType": "address[]",
                    "name": "_addresses",
                    "type": "address[]"
                }
            ],
            "name": "addToWhiteListBatch",
            "outputs": [],
            "stateMutability": "nonpayable",
            "type": "function"
        },
        {
            "inputs": [],
            "name": "burnMyTokensToParticipate",
            "outputs": [],
            "stateMutability": "nonpayable",
            "type": "function"
        },
        {
            "inputs": [
                {
                    "internalType": "bytes32",
                    "name": "role",
                    "type": "bytes32"
                }
            ],
            "name": "getRoleAdmin",
            "outputs": [
                {
                    "internalType": "bytes32",
                    "name": "",
                    "type": "bytes32"
                }
            ],
            "stateMutability": "view",
            "type": "function"
        },
        {
            "inputs": [
                {
                    "internalType": "bytes32",
                    "name": "role",
                    "type": "bytes32"
                },
                {
                    "internalType": "address",
                    "name": "account",
                    "type": "address"
                }
            ],
            "name": "grantRole",
            "outputs": [],
            "stateMutability": "nonpayable",
            "type": "function"
        },
        {
            "inputs": [
                {
                    "internalType": "bytes32",
                    "name": "role",
                    "type": "bytes32"
                },
                {
                    "internalType": "address",
                    "name": "account",
                    "type": "address"
                }
            ],
            "name": "hasRole",
            "outputs": [
                {
                    "internalType": "bool",
                    "name": "",
                    "type": "bool"
                }
            ],
            "stateMutability": "view",
            "type": "function"
        },
        {
            "inputs": [],
            "name": "mintWithBlueList",
            "outputs": [],
            "stateMutability": "nonpayable",
            "type": "function"
        },
        {
            "inputs": [],
            "name": "mintWithWhiteList",
            "outputs": [],
            "stateMutability": "nonpayable",
            "type": "function"
        },
        {
            "inputs": [
                {
                    "internalType": "bytes32",
                    "name": "role",
                    "type": "bytes32"
                },
                {
                    "internalType": "address",
                    "name": "account",
                    "type": "address"
                }
            ],
            "name": "renounceRole",
            "outputs": [],
            "stateMutability": "nonpayable",
            "type": "function"
        },
        {
            "inputs": [
                {
                    "internalType": "bytes32",
                    "name": "role",
                    "type": "bytes32"
                },
                {
                    "internalType": "address",
                    "name": "account",
                    "type": "address"
                }
            ],
            "name": "revokeRole",
            "outputs": [],
            "stateMutability": "nonpayable",
            "type": "function"
        },
        {
            "inputs": [
                {
                    "internalType": "bytes4",
                    "name": "interfaceId",
                    "type": "bytes4"
                }
            ],
            "name": "supportsInterface",
            "outputs": [
                {
                    "internalType": "bool",
                    "name": "",
                    "type": "bool"
                }
            ],
            "stateMutability": "view",
            "type": "function"
        }
    ],
    "bytecode": "608060405234801561001057600080fd5b50604051610d8f380380610d8f83398101604081905261002f916100fa565b600180546001600160a01b0319166001600160a01b03831617905561005560003361005b565b5061012a565b6000828152602081815260408083206001600160a01b038516845290915290205460ff166100f6576000828152602081815260408083206001600160a01b03851684529091529020805460ff191660011790556100b53390565b6001600160a01b0316816001600160a01b0316837f2f8788117e7eff1d82e926ec794901d17c78024a50270940304540a733656f0d60405160405180910390a45b5050565b60006020828403121561010c57600080fd5b81516001600160a01b038116811461012357600080fd5b9392505050565b610c56806101396000396000f3fe608060405234801561001057600080fd5b50600436106100b45760003560e01c80634921e4fb116100715780634921e4fb1461014a57806369fe6c461461015257806391d1485414610165578063a217fddf14610178578063d138e93814610180578063d547741f1461019357600080fd5b806301ffc9a7146100b957806311a22c56146100e1578063248a9ca3146100eb5780632f2ff15d1461011c57806336568abe1461012f57806340f84ce514610142575b600080fd5b6100cc6100c7366004610921565b6101a6565b60405190151581526020015b60405180910390f35b6100e96101dd565b005b61010e6100f936600461094b565b60009081526020819052604090206001015490565b6040519081526020016100d8565b6100e961012a366004610980565b61031a565b6100e961013d366004610980565b610344565b6100e96103c2565b6100e96104b0565b6100e96101603660046109c2565b61051d565b6100cc610173366004610980565b61054d565b61010e600081565b6100e961018e3660046109c2565b610576565b6100e96101a1366004610980565b6105e4565b60006001600160e01b03198216637965db0b60e01b14806101d757506301ffc9a760e01b6001600160e01b03198316145b92915050565b33600090815260026020526040902054806102495760405162461bcd60e51b815260206004820152602160248201527f5061727469636970616e7465206e6f206573746120656e2077686974656c69736044820152601d60fa1b60648201526084015b60405180910390fd5b62015180806102588342610a9d565b11156102a65760405162461bcd60e51b815260206004820152601760248201527f50617361726f6e206d617320646520323420686f7261730000000000000000006044820152606401610240565b60006102b0610609565b6001546040516340c10f1960e01b8152336004820152602481018390529192506001600160a01b0316906340c10f1990604401600060405180830381600087803b1580156102fd57600080fd5b505af1158015610311573d6000803e3d6000fd5b50505050505050565b60008281526020819052604090206001015461033581610624565b61033f8383610631565b505050565b6001600160a01b03811633146103b45760405162461bcd60e51b815260206004820152602f60248201527f416363657373436f6e74726f6c3a2063616e206f6e6c792072656e6f756e636560448201526e103937b632b9903337b91039b2b63360891b6064820152608401610240565b6103be82826106b5565b5050565b6001546040516370a0823160e01b81523360048201526000916001600160a01b0316906370a0823190602401602060405180830381600087803b15801561040857600080fd5b505af115801561041c573d6000803e3d6000fd5b505050506040513d601f19601f820116820180604052508101906104409190610ab4565b600154604051632770a7eb60e21b8152336004820152683635c9adc5dea0000060248201529192506001600160a01b031690639dc29fac90604401600060405180830381600087803b15801561049557600080fd5b505af11580156104a9573d6000803e3d6000fd5b5050505050565b600080806001546040516340c10f1960e01b8152336004820152602481018390529192506001600160a01b0316906340c10f1990604401600060405180830381600087803b15801561050157600080fd5b505af1158015610515573d6000803e3d6000fd5b505050505050565b600061052881610624565b815160005b81811015610547578061053f81610acd565b91505061052d565b50505050565b6000918252602082815260408084206001600160a01b0393909316845291905290205460ff1690565b600061058181610624565b815160005b818110156105475742600260008684815181106105a5576105a5610ae8565b60200260200101516001600160a01b03166001600160a01b031681526020019081526020016000208190555080806105dc90610acd565b915050610586565b6000828152602081905260409020600101546105ff81610624565b61033f83836106b5565b60008061061e81670de0b6b3a7640000610afe565b91505090565b61062e813361071a565b50565b61063b828261054d565b6103be576000828152602081815260408083206001600160a01b03851684529091529020805460ff191660011790556106713390565b6001600160a01b0316816001600160a01b0316837f2f8788117e7eff1d82e926ec794901d17c78024a50270940304540a733656f0d60405160405180910390a45050565b6106bf828261054d565b156103be576000828152602081815260408083206001600160a01b0385168085529252808320805460ff1916905551339285917ff6391f5c32d9c69d2a47ea670b442974b53935d1edc7fd64eb21e047a839171b9190a45050565b610724828261054d565b6103be5761073c816001600160a01b0316601461077e565b61074783602061077e565b604051602001610758929190610b49565b60408051601f198184030181529082905262461bcd60e51b825261024091600401610bbe565b6060600061078d836002610afe565b610798906002610bf1565b67ffffffffffffffff8111156107b0576107b06109ac565b6040519080825280601f01601f1916602001820160405280156107da576020820181803683370190505b509050600360fc1b816000815181106107f5576107f5610ae8565b60200101906001600160f81b031916908160001a905350600f60fb1b8160018151811061082457610824610ae8565b60200101906001600160f81b031916908160001a9053506000610848846002610afe565b610853906001610bf1565b90505b60018111156108cb576f181899199a1a9b1b9c1cb0b131b232b360811b85600f166010811061088757610887610ae8565b1a60f81b82828151811061089d5761089d610ae8565b60200101906001600160f81b031916908160001a90535060049490941c936108c481610c09565b9050610856565b50831561091a5760405162461bcd60e51b815260206004820181905260248201527f537472696e67733a20686578206c656e67746820696e73756666696369656e746044820152606401610240565b9392505050565b60006020828403121561093357600080fd5b81356001600160e01b03198116811461091a57600080fd5b60006020828403121561095d57600080fd5b5035919050565b80356001600160a01b038116811461097b57600080fd5b919050565b6000806040838503121561099357600080fd5b823591506109a360208401610964565b90509250929050565b634e487b7160e01b600052604160045260246000fd5b600060208083850312156109d557600080fd5b823567ffffffffffffffff808211156109ed57600080fd5b818501915085601f830112610a0157600080fd5b813581811115610a1357610a136109ac565b8060051b604051601f19603f83011681018181108582111715610a3857610a386109ac565b604052918252848201925083810185019188831115610a5657600080fd5b938501935b82851015610a7b57610a6c85610964565b84529385019392850192610a5b565b98975050505050505050565b634e487b7160e01b600052601160045260246000fd5b600082821015610aaf57610aaf610a87565b500390565b600060208284031215610ac657600080fd5b5051919050565b6000600019821415610ae157610ae1610a87565b5060010190565b634e487b7160e01b600052603260045260246000fd5b6000816000190483118215151615610b1857610b18610a87565b500290565b60005b83811015610b38578181015183820152602001610b20565b838111156105475750506000910152565b7f416363657373436f6e74726f6c3a206163636f756e7420000000000000000000815260008351610b81816017850160208801610b1d565b7001034b99036b4b9b9b4b733903937b6329607d1b6017918401918201528351610bb2816028840160208801610b1d565b01602801949350505050565b6020815260008251806020840152610bdd816040850160208701610b1d565b601f01601f19169190910160400192915050565b60008219821115610c0457610c04610a87565b500190565b600081610c1857610c18610a87565b50600019019056fea26469706673582212207c39d7176fc93d8fa58db2d57d8d073506a6fc391cb23b3fdbff3557f175e67164736f6c63430008090033",
    "sourcePath": "/Volumes/SSD 1TB/Projects/Blockchain/solidity-utec-coding/contracts/learning/Airdrop.sol",
    "compiler": {
        "name": "solc",
        "version": "0.8.9+commit.e5eed63a"
    },
    "functionHashes": {
        "DEFAULT_ADMIN_ROLE()": "a217fddf",
        "addToBlueListBatch(address[])": "69fe6c46",
        "addToWhiteListBatch(address[])": "d138e938",
        "burnMyTokensToParticipate()": "40f84ce5",
        "getRoleAdmin(bytes32)": "248a9ca3",
        "grantRole(bytes32,address)": "2f2ff15d",
        "hasRole(bytes32,address)": "91d14854",
        "mintWithBlueList()": "4921e4fb",
        "mintWithWhiteList()": "11a22c56",
        "renounceRole(bytes32,address)": "36568abe",
        "revokeRole(bytes32,address)": "d547741f",
        "supportsInterface(bytes4)": "01ffc9a7"
    },
    "gasEstimates": {
        "creation": {
            "codeDepositCost": "631600",
            "executionCost": "infinite",
            "totalCost": "infinite"
        },
        "external": {
            "DEFAULT_ADMIN_ROLE()": "261",
            "addToBlueListBatch(address[])": "infinite",
            "addToWhiteListBatch(address[])": "infinite",
            "burnMyTokensToParticipate()": "infinite",
            "getRoleAdmin(bytes32)": "2492",
            "grantRole(bytes32,address)": "infinite",
            "hasRole(bytes32,address)": "2695",
            "mintWithBlueList()": "infinite",
            "mintWithWhiteList()": "infinite",
            "renounceRole(bytes32,address)": "29084",
            "revokeRole(bytes32,address)": "infinite",
            "supportsInterface(bytes4)": "427"
        },
        "internal": {
            "_getRandom()": "117",
            "_getTokensBasedOnTime(uint256)": "infinite"
        }
    }
}