{
    "contractName": "MiTokenParaVenta",
    "abi": [
        {
            "inputs": [
                {
                    "internalType": "address",
                    "name": "_usdcAddress",
                    "type": "address"
                }
            ],
            "stateMutability": "nonpayable",
            "type": "constructor"
        },
        {
            "anonymous": false,
            "inputs": [
                {
                    "indexed": true,
                    "internalType": "address",
                    "name": "owner",
                    "type": "address"
                },
                {
                    "indexed": true,
                    "internalType": "address",
                    "name": "spender",
                    "type": "address"
                },
                {
                    "indexed": false,
                    "internalType": "uint256",
                    "name": "value",
                    "type": "uint256"
                }
            ],
            "name": "Approval",
            "type": "event"
        },
        {
            "anonymous": false,
            "inputs": [
                {
                    "indexed": true,
                    "internalType": "bytes32",
                    "name": "role",
                    "type": "bytes32"
                },
                {
                    "indexed": true,
                    "internalType": "bytes32",
                    "name": "previousAdminRole",
                    "type": "bytes32"
                },
                {
                    "indexed": true,
                    "internalType": "bytes32",
                    "name": "newAdminRole",
                    "type": "bytes32"
                }
            ],
            "name": "RoleAdminChanged",
            "type": "event"
        },
        {
            "anonymous": false,
            "inputs": [
                {
                    "indexed": true,
                    "internalType": "bytes32",
                    "name": "role",
                    "type": "bytes32"
                },
                {
                    "indexed": true,
                    "internalType": "address",
                    "name": "account",
                    "type": "address"
                },
                {
                    "indexed": true,
                    "internalType": "address",
                    "name": "sender",
                    "type": "address"
                }
            ],
            "name": "RoleGranted",
            "type": "event"
        },
        {
            "anonymous": false,
            "inputs": [
                {
                    "indexed": true,
                    "internalType": "bytes32",
                    "name": "role",
                    "type": "bytes32"
                },
                {
                    "indexed": true,
                    "internalType": "address",
                    "name": "account",
                    "type": "address"
                },
                {
                    "indexed": true,
                    "internalType": "address",
                    "name": "sender",
                    "type": "address"
                }
            ],
            "name": "RoleRevoked",
            "type": "event"
        },
        {
            "anonymous": false,
            "inputs": [
                {
                    "indexed": true,
                    "internalType": "address",
                    "name": "from",
                    "type": "address"
                },
                {
                    "indexed": true,
                    "internalType": "address",
                    "name": "to",
                    "type": "address"
                },
                {
                    "indexed": false,
                    "internalType": "uint256",
                    "name": "value",
                    "type": "uint256"
                }
            ],
            "name": "Transfer",
            "type": "event"
        },
        {
            "inputs": [],
            "name": "BURNER_ROLE",
            "outputs": [
                {
                    "internalType": "bytes32",
                    "name": "",
                    "type": "bytes32"
                }
            ],
            "stateMutability": "view",
            "type": "function"
        },
        {
            "inputs": [],
            "name": "DEFAULT_ADMIN_ROLE",
            "outputs": [
                {
                    "internalType": "bytes32",
                    "name": "",
                    "type": "bytes32"
                }
            ],
            "stateMutability": "view",
            "type": "function"
        },
        {
            "inputs": [],
            "name": "MINTER_ROLE",
            "outputs": [
                {
                    "internalType": "bytes32",
                    "name": "",
                    "type": "bytes32"
                }
            ],
            "stateMutability": "view",
            "type": "function"
        },
        {
            "inputs": [
                {
                    "internalType": "address",
                    "name": "owner",
                    "type": "address"
                },
                {
                    "internalType": "address",
                    "name": "spender",
                    "type": "address"
                }
            ],
            "name": "allowance",
            "outputs": [
                {
                    "internalType": "uint256",
                    "name": "",
                    "type": "uint256"
                }
            ],
            "stateMutability": "view",
            "type": "function"
        },
        {
            "inputs": [
                {
                    "internalType": "address",
                    "name": "spender",
                    "type": "address"
                },
                {
                    "internalType": "uint256",
                    "name": "amount",
                    "type": "uint256"
                }
            ],
            "name": "approve",
            "outputs": [
                {
                    "internalType": "bool",
                    "name": "",
                    "type": "bool"
                }
            ],
            "stateMutability": "nonpayable",
            "type": "function"
        },
        {
            "inputs": [
                {
                    "internalType": "address",
                    "name": "account",
                    "type": "address"
                }
            ],
            "name": "balanceOf",
            "outputs": [
                {
                    "internalType": "uint256",
                    "name": "",
                    "type": "uint256"
                }
            ],
            "stateMutability": "view",
            "type": "function"
        },
        {
            "inputs": [],
            "name": "decimals",
            "outputs": [
                {
                    "internalType": "uint8",
                    "name": "",
                    "type": "uint8"
                }
            ],
            "stateMutability": "view",
            "type": "function"
        },
        {
            "inputs": [
                {
                    "internalType": "address",
                    "name": "spender",
                    "type": "address"
                },
                {
                    "internalType": "uint256",
                    "name": "subtractedValue",
                    "type": "uint256"
                }
            ],
            "name": "decreaseAllowance",
            "outputs": [
                {
                    "internalType": "bool",
                    "name": "",
                    "type": "bool"
                }
            ],
            "stateMutability": "nonpayable",
            "type": "function"
        },
        {
            "inputs": [],
            "name": "exchangeRate",
            "outputs": [
                {
                    "internalType": "uint256",
                    "name": "",
                    "type": "uint256"
                }
            ],
            "stateMutability": "view",
            "type": "function"
        },
        {
            "inputs": [
                {
                    "internalType": "bytes32",
                    "name": "role",
                    "type": "bytes32"
                }
            ],
            "name": "getRoleAdmin",
            "outputs": [
                {
                    "internalType": "bytes32",
                    "name": "",
                    "type": "bytes32"
                }
            ],
            "stateMutability": "view",
            "type": "function"
        },
        {
            "inputs": [
                {
                    "internalType": "bytes32",
                    "name": "role",
                    "type": "bytes32"
                },
                {
                    "internalType": "address",
                    "name": "account",
                    "type": "address"
                }
            ],
            "name": "grantRole",
            "outputs": [],
            "stateMutability": "nonpayable",
            "type": "function"
        },
        {
            "inputs": [
                {
                    "internalType": "bytes32",
                    "name": "role",
                    "type": "bytes32"
                },
                {
                    "internalType": "address",
                    "name": "account",
                    "type": "address"
                }
            ],
            "name": "hasRole",
            "outputs": [
                {
                    "internalType": "bool",
                    "name": "",
                    "type": "bool"
                }
            ],
            "stateMutability": "view",
            "type": "function"
        },
        {
            "inputs": [
                {
                    "internalType": "address",
                    "name": "spender",
                    "type": "address"
                },
                {
                    "internalType": "uint256",
                    "name": "addedValue",
                    "type": "uint256"
                }
            ],
            "name": "increaseAllowance",
            "outputs": [
                {
                    "internalType": "bool",
                    "name": "",
                    "type": "bool"
                }
            ],
            "stateMutability": "nonpayable",
            "type": "function"
        },
        {
            "inputs": [],
            "name": "name",
            "outputs": [
                {
                    "internalType": "string",
                    "name": "",
                    "type": "string"
                }
            ],
            "stateMutability": "view",
            "type": "function"
        },
        {
            "inputs": [
                {
                    "internalType": "uint256",
                    "name": "_usdcAmount",
                    "type": "uint256"
                }
            ],
            "name": "purchaseFixRate",
            "outputs": [],
            "stateMutability": "nonpayable",
            "type": "function"
        },
        {
            "inputs": [
                {
                    "internalType": "uint256",
                    "name": "_usdcAmount",
                    "type": "uint256"
                }
            ],
            "name": "purchaseVariableRate",
            "outputs": [],
            "stateMutability": "nonpayable",
            "type": "function"
        },
        {
            "inputs": [
                {
                    "internalType": "bytes32",
                    "name": "role",
                    "type": "bytes32"
                },
                {
                    "internalType": "address",
                    "name": "account",
                    "type": "address"
                }
            ],
            "name": "renounceRole",
            "outputs": [],
            "stateMutability": "nonpayable",
            "type": "function"
        },
        {
            "inputs": [
                {
                    "internalType": "bytes32",
                    "name": "role",
                    "type": "bytes32"
                },
                {
                    "internalType": "address",
                    "name": "account",
                    "type": "address"
                }
            ],
            "name": "revokeRole",
            "outputs": [],
            "stateMutability": "nonpayable",
            "type": "function"
        },
        {
            "inputs": [
                {
                    "internalType": "bytes4",
                    "name": "interfaceId",
                    "type": "bytes4"
                }
            ],
            "name": "supportsInterface",
            "outputs": [
                {
                    "internalType": "bool",
                    "name": "",
                    "type": "bool"
                }
            ],
            "stateMutability": "view",
            "type": "function"
        },
        {
            "inputs": [],
            "name": "symbol",
            "outputs": [
                {
                    "internalType": "string",
                    "name": "",
                    "type": "string"
                }
            ],
            "stateMutability": "view",
            "type": "function"
        },
        {
            "inputs": [],
            "name": "totalSupply",
            "outputs": [
                {
                    "internalType": "uint256",
                    "name": "",
                    "type": "uint256"
                }
            ],
            "stateMutability": "view",
            "type": "function"
        },
        {
            "inputs": [
                {
                    "internalType": "address",
                    "name": "to",
                    "type": "address"
                },
                {
                    "internalType": "uint256",
                    "name": "amount",
                    "type": "uint256"
                }
            ],
            "name": "transfer",
            "outputs": [
                {
                    "internalType": "bool",
                    "name": "",
                    "type": "bool"
                }
            ],
            "stateMutability": "nonpayable",
            "type": "function"
        },
        {
            "inputs": [
                {
                    "internalType": "address",
                    "name": "from",
                    "type": "address"
                },
                {
                    "internalType": "address",
                    "name": "to",
                    "type": "address"
                },
                {
                    "internalType": "uint256",
                    "name": "amount",
                    "type": "uint256"
                }
            ],
            "name": "transferFrom",
            "outputs": [
                {
                    "internalType": "bool",
                    "name": "",
                    "type": "bool"
                }
            ],
            "stateMutability": "nonpayable",
            "type": "function"
        }
    ],
    "bytecode": "60806040523480156200001157600080fd5b506040516200150738038062001507833981016040819052620000349162000254565b604080518082018252601381527f4d6920546f6b656e20506172612056656e74610000000000000000000000000060208083019182528351808501909452600484526326aa282b60e11b9084015281519192916200009591600391620001ae565b508051620000ab906004906020840190620001ae565b5050600680546001600160a01b0319166001600160a01b03841617905550620000d660003362000109565b620001027f9f2df0fed2c77648de5860a4cc508cd0818c85b8b8a1ab4ceeef8d981c8956a63362000109565b50620002c3565b60008281526005602090815260408083206001600160a01b038516845290915290205460ff16620001aa5760008281526005602090815260408083206001600160a01b03851684529091529020805460ff19166001179055620001693390565b6001600160a01b0316816001600160a01b0316837f2f8788117e7eff1d82e926ec794901d17c78024a50270940304540a733656f0d60405160405180910390a45b5050565b828054620001bc9062000286565b90600052602060002090601f016020900481019282620001e057600085556200022b565b82601f10620001fb57805160ff19168380011785556200022b565b828001600101855582156200022b579182015b828111156200022b5782518255916020019190600101906200020e565b50620002399291506200023d565b5090565b5b808211156200023957600081556001016200023e565b6000602082840312156200026757600080fd5b81516001600160a01b03811681146200027f57600080fd5b9392505050565b600181811c908216806200029b57607f821691505b60208210811415620002bd57634e487b7160e01b600052602260045260246000fd5b50919050565b61123480620002d36000396000f3fe608060405234801561001057600080fd5b506004361061014d5760003560e01c80633ba0b9a9116100c3578063a217fddf1161007c578063a217fddf146102cd578063a457c2d7146102d5578063a9059cbb146102e8578063d5391393146102fb578063d547741f14610322578063dd62ed3e1461033557600080fd5b80633ba0b9a91461025b5780635c7ba6a21461026357806370a0823114610276578063863552c91461029f57806391d14854146102b257806395d89b41146102c557600080fd5b8063248a9ca311610115578063248a9ca3146101c7578063282c51f3146101ea5780632f2ff15d14610211578063313ce5671461022657806336568abe14610235578063395093511461024857600080fd5b806301ffc9a71461015257806306fdde031461017a578063095ea7b31461018f57806318160ddd146101a257806323b872dd146101b4575b600080fd5b610165610160366004610dfd565b610348565b60405190151581526020015b60405180910390f35b61018261037f565b6040516101719190610e53565b61016561019d366004610ea2565b610411565b6002545b604051908152602001610171565b6101656101c2366004610ecc565b610429565b6101a66101d5366004610f08565b60009081526005602052604090206001015490565b6101a67f3c11d16cbaffd01df69ce1c404f6340ee057498f5f00246190ea54220576a84881565b61022461021f366004610f21565b61044d565b005b60405160128152602001610171565b610224610243366004610f21565b610477565b610165610256366004610ea2565b6104fa565b6101a6601981565b610224610271366004610f08565b61051c565b6101a6610284366004610f4d565b6001600160a01b031660009081526020819052604090205490565b6102246102ad366004610f08565b610533565b6101656102c0366004610f21565b61053b565b610182610566565b6101a6600081565b6101656102e3366004610ea2565b610575565b6101656102f6366004610ea2565b6105f0565b6101a67f9f2df0fed2c77648de5860a4cc508cd0818c85b8b8a1ab4ceeef8d981c8956a681565b610224610330366004610f21565b6105fe565b6101a6610343366004610f68565b610623565b60006001600160e01b03198216637965db0b60e01b148061037957506301ffc9a760e01b6001600160e01b03198316145b92915050565b60606003805461038e90610f92565b80601f01602080910402602001604051908101604052809291908181526020018280546103ba90610f92565b80156104075780601f106103dc57610100808354040283529160200191610407565b820191906000526020600020905b8154815290600101906020018083116103ea57829003601f168201915b5050505050905090565b60003361041f81858561064e565b5060019392505050565b600033610437858285610772565b6104428585856107ec565b506001949350505050565b600082815260056020526040902060010154610468816109ba565b61047283836109c7565b505050565b6001600160a01b03811633146104ec5760405162461bcd60e51b815260206004820152602f60248201527f416363657373436f6e74726f6c3a2063616e206f6e6c792072656e6f756e636560448201526e103937b632b9903337b91039b2b63360891b60648201526084015b60405180910390fd5b6104f68282610a4d565b5050565b60003361041f81858561050d8383610623565b6105179190610fe3565b61064e565b600061052782610ab4565b90506104f63382610b17565b600080610527565b60009182526005602090815260408084206001600160a01b0393909316845291905290205460ff1690565b60606004805461038e90610f92565b600033816105838286610623565b9050838110156105e35760405162461bcd60e51b815260206004820152602560248201527f45524332303a2064656372656173656420616c6c6f77616e63652062656c6f77604482015264207a65726f60d81b60648201526084016104e3565b610442828686840361064e565b60003361041f8185856107ec565b600082815260056020526040902060010154610619816109ba565b6104728383610a4d565b6001600160a01b03918216600090815260016020908152604080832093909416825291909152205490565b6001600160a01b0383166106b05760405162461bcd60e51b8152602060048201526024808201527f45524332303a20617070726f76652066726f6d20746865207a65726f206164646044820152637265737360e01b60648201526084016104e3565b6001600160a01b0382166107115760405162461bcd60e51b815260206004820152602260248201527f45524332303a20617070726f766520746f20746865207a65726f206164647265604482015261737360f01b60648201526084016104e3565b6001600160a01b0383811660008181526001602090815260408083209487168084529482529182902085905590518481527f8c5be1e5ebec7d5bd14f71427d1e84f3dd0314c0f7b2291e5b200ac8c7c3b925910160405180910390a3505050565b600061077e8484610623565b905060001981146107e657818110156107d95760405162461bcd60e51b815260206004820152601d60248201527f45524332303a20696e73756666696369656e7420616c6c6f77616e636500000060448201526064016104e3565b6107e6848484840361064e565b50505050565b6001600160a01b0383166108505760405162461bcd60e51b815260206004820152602560248201527f45524332303a207472616e736665722066726f6d20746865207a65726f206164604482015264647265737360d81b60648201526084016104e3565b6001600160a01b0382166108b25760405162461bcd60e51b815260206004820152602360248201527f45524332303a207472616e7366657220746f20746865207a65726f206164647260448201526265737360e81b60648201526084016104e3565b6001600160a01b0383166000908152602081905260409020548181101561092a5760405162461bcd60e51b815260206004820152602660248201527f45524332303a207472616e7366657220616d6f756e7420657863656564732062604482015265616c616e636560d01b60648201526084016104e3565b6001600160a01b03808516600090815260208190526040808220858503905591851681529081208054849290610961908490610fe3565b92505081905550826001600160a01b0316846001600160a01b03167fddf252ad1be2c89b69c2b068fc378daa952ba7f163c4a11628f55a4df523b3ef846040516109ad91815260200190565b60405180910390a36107e6565b6109c48133610bf6565b50565b6109d1828261053b565b6104f65760008281526005602090815260408083206001600160a01b03851684529091529020805460ff19166001179055610a093390565b6001600160a01b0316816001600160a01b0316837f2f8788117e7eff1d82e926ec794901d17c78024a50270940304540a733656f0d60405160405180910390a45050565b610a57828261053b565b156104f65760008281526005602090815260408083206001600160a01b0385168085529252808320805460ff1916905551339285917ff6391f5c32d9c69d2a47ea670b442974b53935d1edc7fd64eb21e047a839171b9190a45050565b600080670de0b6b3a7640000610ac960025490565b610ad39190610ffb565b90506000610ae282600261101d565b610aed600284611120565b610af7919061112f565b610b03906103e8610fe3565b9050610b0f8185610ffb565b949350505050565b6001600160a01b038216610b6d5760405162461bcd60e51b815260206004820152601f60248201527f45524332303a206d696e7420746f20746865207a65726f20616464726573730060448201526064016104e3565b8060026000828254610b7f9190610fe3565b90915550506001600160a01b03821660009081526020819052604081208054839290610bac908490610fe3565b90915550506040518181526001600160a01b038316906000907fddf252ad1be2c89b69c2b068fc378daa952ba7f163c4a11628f55a4df523b3ef9060200160405180910390a35050565b610c00828261053b565b6104f657610c18816001600160a01b03166014610c5a565b610c23836020610c5a565b604051602001610c34929190611146565b60408051601f198184030181529082905262461bcd60e51b82526104e391600401610e53565b60606000610c6983600261101d565b610c74906002610fe3565b67ffffffffffffffff811115610c8c57610c8c6111bb565b6040519080825280601f01601f191660200182016040528015610cb6576020820181803683370190505b509050600360fc1b81600081518110610cd157610cd16111d1565b60200101906001600160f81b031916908160001a905350600f60fb1b81600181518110610d0057610d006111d1565b60200101906001600160f81b031916908160001a9053506000610d2484600261101d565b610d2f906001610fe3565b90505b6001811115610da7576f181899199a1a9b1b9c1cb0b131b232b360811b85600f1660108110610d6357610d636111d1565b1a60f81b828281518110610d7957610d796111d1565b60200101906001600160f81b031916908160001a90535060049490941c93610da0816111e7565b9050610d32565b508315610df65760405162461bcd60e51b815260206004820181905260248201527f537472696e67733a20686578206c656e67746820696e73756666696369656e7460448201526064016104e3565b9392505050565b600060208284031215610e0f57600080fd5b81356001600160e01b031981168114610df657600080fd5b60005b83811015610e42578181015183820152602001610e2a565b838111156107e65750506000910152565b6020815260008251806020840152610e72816040850160208701610e27565b601f01601f19169190910160400192915050565b80356001600160a01b0381168114610e9d57600080fd5b919050565b60008060408385031215610eb557600080fd5b610ebe83610e86565b946020939093013593505050565b600080600060608486031215610ee157600080fd5b610eea84610e86565b9250610ef860208501610e86565b9150604084013590509250925092565b600060208284031215610f1a57600080fd5b5035919050565b60008060408385031215610f3457600080fd5b82359150610f4460208401610e86565b90509250929050565b600060208284031215610f5f57600080fd5b610df682610e86565b60008060408385031215610f7b57600080fd5b610f8483610e86565b9150610f4460208401610e86565b600181811c90821680610fa657607f821691505b60208210811415610fc757634e487b7160e01b600052602260045260246000fd5b50919050565b634e487b7160e01b600052601160045260246000fd5b60008219821115610ff657610ff6610fcd565b500190565b60008261101857634e487b7160e01b600052601260045260246000fd5b500490565b600081600019048311821515161561103757611037610fcd565b500290565b600181815b8085111561107757816000190482111561105d5761105d610fcd565b8085161561106a57918102915b93841c9390800290611041565b509250929050565b60008261108e57506001610379565b8161109b57506000610379565b81600181146110b157600281146110bb576110d7565b6001915050610379565b60ff8411156110cc576110cc610fcd565b50506001821b610379565b5060208310610133831016604e8410600b84101617156110fa575081810a610379565b611104838361103c565b806000190482111561111857611118610fcd565b029392505050565b6000610df660ff84168361107f565b60008282101561114157611141610fcd565b500390565b7f416363657373436f6e74726f6c3a206163636f756e742000000000000000000081526000835161117e816017850160208801610e27565b7001034b99036b4b9b9b4b733903937b6329607d1b60179184019182015283516111af816028840160208801610e27565b01602801949350505050565b634e487b7160e01b600052604160045260246000fd5b634e487b7160e01b600052603260045260246000fd5b6000816111f6576111f6610fcd565b50600019019056fea2646970667358221220c761594b91b35de379189105cc57c26cd4cda3720c14559edc08198b6498bd2564736f6c63430008090033",
    "sourcePath": "/Volumes/SSD 1TB/Projects/Blockchain/solidity-utec-coding/contracts/learning/PurchaseToken.sol",
    "compiler": {
        "name": "solc",
        "version": "0.8.9+commit.e5eed63a"
    },
    "functionHashes": {
        "BURNER_ROLE()": "282c51f3",
        "DEFAULT_ADMIN_ROLE()": "a217fddf",
        "MINTER_ROLE()": "d5391393",
        "allowance(address,address)": "dd62ed3e",
        "approve(address,uint256)": "095ea7b3",
        "balanceOf(address)": "70a08231",
        "decimals()": "313ce567",
        "decreaseAllowance(address,uint256)": "a457c2d7",
        "exchangeRate()": "3ba0b9a9",
        "getRoleAdmin(bytes32)": "248a9ca3",
        "grantRole(bytes32,address)": "2f2ff15d",
        "hasRole(bytes32,address)": "91d14854",
        "increaseAllowance(address,uint256)": "39509351",
        "name()": "06fdde03",
        "purchaseFixRate(uint256)": "863552c9",
        "purchaseVariableRate(uint256)": "5c7ba6a2",
        "renounceRole(bytes32,address)": "36568abe",
        "revokeRole(bytes32,address)": "d547741f",
        "supportsInterface(bytes4)": "01ffc9a7",
        "symbol()": "95d89b41",
        "totalSupply()": "18160ddd",
        "transfer(address,uint256)": "a9059cbb",
        "transferFrom(address,address,uint256)": "23b872dd"
    },
    "gasEstimates": {
        "creation": {
            "codeDepositCost": "932000",
            "executionCost": "infinite",
            "totalCost": "infinite"
        },
        "external": {
            "BURNER_ROLE()": "240",
            "DEFAULT_ADMIN_ROLE()": "217",
            "MINTER_ROLE()": "283",
            "allowance(address,address)": "infinite",
            "approve(address,uint256)": "24658",
            "balanceOf(address)": "2607",
            "decimals()": "266",
            "decreaseAllowance(address,uint256)": "26983",
            "exchangeRate()": "218",
            "getRoleAdmin(bytes32)": "2467",
            "grantRole(bytes32,address)": "infinite",
            "hasRole(bytes32,address)": "2765",
            "increaseAllowance(address,uint256)": "27100",
            "name()": "infinite",
            "purchaseFixRate(uint256)": "infinite",
            "purchaseVariableRate(uint256)": "infinite",
            "renounceRole(bytes32,address)": "29112",
            "revokeRole(bytes32,address)": "infinite",
            "supportsInterface(bytes4)": "450",
            "symbol()": "infinite",
            "totalSupply()": "2371",
            "transfer(address,uint256)": "51237",
            "transferFrom(address,address,uint256)": "infinite"
        },
        "internal": {
            "_getTokensByChange(uint256)": "infinite",
            "_getTokensByRate(uint256)": "infinite"
        }
    }
}