{
    "contractName": "TokenAIRDRP",
    "abi": [
        {
            "inputs": [],
            "stateMutability": "nonpayable",
            "type": "constructor"
        },
        {
            "anonymous": false,
            "inputs": [
                {
                    "indexed": true,
                    "internalType": "address",
                    "name": "owner",
                    "type": "address"
                },
                {
                    "indexed": true,
                    "internalType": "address",
                    "name": "spender",
                    "type": "address"
                },
                {
                    "indexed": false,
                    "internalType": "uint256",
                    "name": "value",
                    "type": "uint256"
                }
            ],
            "name": "Approval",
            "type": "event"
        },
        {
            "anonymous": false,
            "inputs": [
                {
                    "indexed": true,
                    "internalType": "bytes32",
                    "name": "role",
                    "type": "bytes32"
                },
                {
                    "indexed": true,
                    "internalType": "bytes32",
                    "name": "previousAdminRole",
                    "type": "bytes32"
                },
                {
                    "indexed": true,
                    "internalType": "bytes32",
                    "name": "newAdminRole",
                    "type": "bytes32"
                }
            ],
            "name": "RoleAdminChanged",
            "type": "event"
        },
        {
            "anonymous": false,
            "inputs": [
                {
                    "indexed": true,
                    "internalType": "bytes32",
                    "name": "role",
                    "type": "bytes32"
                },
                {
                    "indexed": true,
                    "internalType": "address",
                    "name": "account",
                    "type": "address"
                },
                {
                    "indexed": true,
                    "internalType": "address",
                    "name": "sender",
                    "type": "address"
                }
            ],
            "name": "RoleGranted",
            "type": "event"
        },
        {
            "anonymous": false,
            "inputs": [
                {
                    "indexed": true,
                    "internalType": "bytes32",
                    "name": "role",
                    "type": "bytes32"
                },
                {
                    "indexed": true,
                    "internalType": "address",
                    "name": "account",
                    "type": "address"
                },
                {
                    "indexed": true,
                    "internalType": "address",
                    "name": "sender",
                    "type": "address"
                }
            ],
            "name": "RoleRevoked",
            "type": "event"
        },
        {
            "anonymous": false,
            "inputs": [
                {
                    "indexed": true,
                    "internalType": "address",
                    "name": "from",
                    "type": "address"
                },
                {
                    "indexed": true,
                    "internalType": "address",
                    "name": "to",
                    "type": "address"
                },
                {
                    "indexed": false,
                    "internalType": "uint256",
                    "name": "value",
                    "type": "uint256"
                }
            ],
            "name": "Transfer",
            "type": "event"
        },
        {
            "inputs": [],
            "name": "BURNER_ROLE",
            "outputs": [
                {
                    "internalType": "bytes32",
                    "name": "",
                    "type": "bytes32"
                }
            ],
            "stateMutability": "view",
            "type": "function"
        },
        {
            "inputs": [],
            "name": "DEFAULT_ADMIN_ROLE",
            "outputs": [
                {
                    "internalType": "bytes32",
                    "name": "",
                    "type": "bytes32"
                }
            ],
            "stateMutability": "view",
            "type": "function"
        },
        {
            "inputs": [],
            "name": "MINTER_ROLE",
            "outputs": [
                {
                    "internalType": "bytes32",
                    "name": "",
                    "type": "bytes32"
                }
            ],
            "stateMutability": "view",
            "type": "function"
        },
        {
            "inputs": [
                {
                    "internalType": "address",
                    "name": "owner",
                    "type": "address"
                },
                {
                    "internalType": "address",
                    "name": "spender",
                    "type": "address"
                }
            ],
            "name": "allowance",
            "outputs": [
                {
                    "internalType": "uint256",
                    "name": "",
                    "type": "uint256"
                }
            ],
            "stateMutability": "view",
            "type": "function"
        },
        {
            "inputs": [
                {
                    "internalType": "address",
                    "name": "spender",
                    "type": "address"
                },
                {
                    "internalType": "uint256",
                    "name": "amount",
                    "type": "uint256"
                }
            ],
            "name": "approve",
            "outputs": [
                {
                    "internalType": "bool",
                    "name": "",
                    "type": "bool"
                }
            ],
            "stateMutability": "nonpayable",
            "type": "function"
        },
        {
            "inputs": [
                {
                    "internalType": "address",
                    "name": "account",
                    "type": "address"
                }
            ],
            "name": "balanceOf",
            "outputs": [
                {
                    "internalType": "uint256",
                    "name": "",
                    "type": "uint256"
                }
            ],
            "stateMutability": "view",
            "type": "function"
        },
        {
            "inputs": [
                {
                    "internalType": "uint256",
                    "name": "amount",
                    "type": "uint256"
                }
            ],
            "name": "burn",
            "outputs": [],
            "stateMutability": "nonpayable",
            "type": "function"
        },
        {
            "inputs": [
                {
                    "internalType": "address",
                    "name": "from",
                    "type": "address"
                },
                {
                    "internalType": "uint256",
                    "name": "amount",
                    "type": "uint256"
                }
            ],
            "name": "burn",
            "outputs": [],
            "stateMutability": "nonpayable",
            "type": "function"
        },
        {
            "inputs": [
                {
                    "internalType": "address",
                    "name": "account",
                    "type": "address"
                },
                {
                    "internalType": "uint256",
                    "name": "amount",
                    "type": "uint256"
                }
            ],
            "name": "burnFrom",
            "outputs": [],
            "stateMutability": "nonpayable",
            "type": "function"
        },
        {
            "inputs": [],
            "name": "decimals",
            "outputs": [
                {
                    "internalType": "uint8",
                    "name": "",
                    "type": "uint8"
                }
            ],
            "stateMutability": "view",
            "type": "function"
        },
        {
            "inputs": [
                {
                    "internalType": "address",
                    "name": "spender",
                    "type": "address"
                },
                {
                    "internalType": "uint256",
                    "name": "subtractedValue",
                    "type": "uint256"
                }
            ],
            "name": "decreaseAllowance",
            "outputs": [
                {
                    "internalType": "bool",
                    "name": "",
                    "type": "bool"
                }
            ],
            "stateMutability": "nonpayable",
            "type": "function"
        },
        {
            "inputs": [
                {
                    "internalType": "bytes32",
                    "name": "role",
                    "type": "bytes32"
                }
            ],
            "name": "getRoleAdmin",
            "outputs": [
                {
                    "internalType": "bytes32",
                    "name": "",
                    "type": "bytes32"
                }
            ],
            "stateMutability": "view",
            "type": "function"
        },
        {
            "inputs": [
                {
                    "internalType": "bytes32",
                    "name": "role",
                    "type": "bytes32"
                },
                {
                    "internalType": "address",
                    "name": "account",
                    "type": "address"
                }
            ],
            "name": "grantRole",
            "outputs": [],
            "stateMutability": "nonpayable",
            "type": "function"
        },
        {
            "inputs": [
                {
                    "internalType": "bytes32",
                    "name": "role",
                    "type": "bytes32"
                },
                {
                    "internalType": "address",
                    "name": "account",
                    "type": "address"
                }
            ],
            "name": "hasRole",
            "outputs": [
                {
                    "internalType": "bool",
                    "name": "",
                    "type": "bool"
                }
            ],
            "stateMutability": "view",
            "type": "function"
        },
        {
            "inputs": [
                {
                    "internalType": "address",
                    "name": "spender",
                    "type": "address"
                },
                {
                    "internalType": "uint256",
                    "name": "addedValue",
                    "type": "uint256"
                }
            ],
            "name": "increaseAllowance",
            "outputs": [
                {
                    "internalType": "bool",
                    "name": "",
                    "type": "bool"
                }
            ],
            "stateMutability": "nonpayable",
            "type": "function"
        },
        {
            "inputs": [
                {
                    "internalType": "address",
                    "name": "to",
                    "type": "address"
                },
                {
                    "internalType": "uint256",
                    "name": "amount",
                    "type": "uint256"
                }
            ],
            "name": "mint",
            "outputs": [],
            "stateMutability": "nonpayable",
            "type": "function"
        },
        {
            "inputs": [],
            "name": "name",
            "outputs": [
                {
                    "internalType": "string",
                    "name": "",
                    "type": "string"
                }
            ],
            "stateMutability": "view",
            "type": "function"
        },
        {
            "inputs": [
                {
                    "internalType": "bytes32",
                    "name": "role",
                    "type": "bytes32"
                },
                {
                    "internalType": "address",
                    "name": "account",
                    "type": "address"
                }
            ],
            "name": "renounceRole",
            "outputs": [],
            "stateMutability": "nonpayable",
            "type": "function"
        },
        {
            "inputs": [
                {
                    "internalType": "bytes32",
                    "name": "role",
                    "type": "bytes32"
                },
                {
                    "internalType": "address",
                    "name": "account",
                    "type": "address"
                }
            ],
            "name": "revokeRole",
            "outputs": [],
            "stateMutability": "nonpayable",
            "type": "function"
        },
        {
            "inputs": [
                {
                    "internalType": "bytes4",
                    "name": "interfaceId",
                    "type": "bytes4"
                }
            ],
            "name": "supportsInterface",
            "outputs": [
                {
                    "internalType": "bool",
                    "name": "",
                    "type": "bool"
                }
            ],
            "stateMutability": "view",
            "type": "function"
        },
        {
            "inputs": [],
            "name": "symbol",
            "outputs": [
                {
                    "internalType": "string",
                    "name": "",
                    "type": "string"
                }
            ],
            "stateMutability": "view",
            "type": "function"
        },
        {
            "inputs": [],
            "name": "totalSupply",
            "outputs": [
                {
                    "internalType": "uint256",
                    "name": "",
                    "type": "uint256"
                }
            ],
            "stateMutability": "view",
            "type": "function"
        },
        {
            "inputs": [
                {
                    "internalType": "address",
                    "name": "to",
                    "type": "address"
                },
                {
                    "internalType": "uint256",
                    "name": "amount",
                    "type": "uint256"
                }
            ],
            "name": "transfer",
            "outputs": [
                {
                    "internalType": "bool",
                    "name": "",
                    "type": "bool"
                }
            ],
            "stateMutability": "nonpayable",
            "type": "function"
        },
        {
            "inputs": [
                {
                    "internalType": "address",
                    "name": "from",
                    "type": "address"
                },
                {
                    "internalType": "address",
                    "name": "to",
                    "type": "address"
                },
                {
                    "internalType": "uint256",
                    "name": "amount",
                    "type": "uint256"
                }
            ],
            "name": "transferFrom",
            "outputs": [
                {
                    "internalType": "bool",
                    "name": "",
                    "type": "bool"
                }
            ],
            "stateMutability": "nonpayable",
            "type": "function"
        }
    ],
    "bytecode": "60806040523480156200001157600080fd5b5060408051808201825260128152710546f6b656e20706172612041697264726f760741b6020808301918252835180850190945260078452660544149524452560cc1b9084015281519192916200006b916003916200016a565b508051620000819060049060208401906200016a565b506200009391506000905033620000c5565b620000bf7f9f2df0fed2c77648de5860a4cc508cd0818c85b8b8a1ab4ceeef8d981c8956a633620000c5565b6200024d565b60008281526005602090815260408083206001600160a01b038516845290915290205460ff16620001665760008281526005602090815260408083206001600160a01b03851684529091529020805460ff19166001179055620001253390565b6001600160a01b0316816001600160a01b0316837f2f8788117e7eff1d82e926ec794901d17c78024a50270940304540a733656f0d60405160405180910390a45b5050565b828054620001789062000210565b90600052602060002090601f0160209004810192826200019c5760008555620001e7565b82601f10620001b757805160ff1916838001178555620001e7565b82800160010185558215620001e7579182015b82811115620001e7578251825591602001919060010190620001ca565b50620001f5929150620001f9565b5090565b5b80821115620001f55760008155600101620001fa565b600181811c908216806200022557607f821691505b602082108114156200024757634e487b7160e01b600052602260045260246000fd5b50919050565b61129b806200025d6000396000f3fe608060405234801561001057600080fd5b50600436106101585760003560e01c806342966c68116100c3578063a217fddf1161007c578063a217fddf146102f6578063a457c2d7146102fe578063a9059cbb14610311578063d539139314610324578063d547741f1461034b578063dd62ed3e1461035e57600080fd5b806342966c681461027957806370a082311461028c57806379cc6790146102b557806391d14854146102c857806395d89b41146102db5780639dc29fac146102e357600080fd5b8063282c51f311610115578063282c51f3146101f55780632f2ff15d1461021c578063313ce5671461023157806336568abe14610240578063395093511461025357806340c10f191461026657600080fd5b806301ffc9a71461015d57806306fdde0314610185578063095ea7b31461019a57806318160ddd146101ad57806323b872dd146101bf578063248a9ca3146101d2575b600080fd5b61017061016b366004610f79565b610371565b60405190151581526020015b60405180910390f35b61018d6103a8565b60405161017c9190610fcf565b6101706101a836600461101e565b61043a565b6002545b60405190815260200161017c565b6101706101cd366004611048565b610452565b6101b16101e0366004611084565b60009081526005602052604090206001015490565b6101b17f3c11d16cbaffd01df69ce1c404f6340ee057498f5f00246190ea54220576a84881565b61022f61022a36600461109d565b610476565b005b6040516012815260200161017c565b61022f61024e36600461109d565b6104a0565b61017061026136600461101e565b610523565b61022f61027436600461101e565b610545565b61022f610287366004611084565b610579565b6101b161029a3660046110c9565b6001600160a01b031660009081526020819052604090205490565b61022f6102c336600461101e565b610586565b6101706102d636600461109d565b61059b565b61018d6105c6565b61022f6102f136600461101e565b6105d5565b6101b1600081565b61017061030c36600461101e565b610609565b61017061031f36600461101e565b610684565b6101b17f9f2df0fed2c77648de5860a4cc508cd0818c85b8b8a1ab4ceeef8d981c8956a681565b61022f61035936600461109d565b610692565b6101b161036c3660046110e4565b6106b7565b60006001600160e01b03198216637965db0b60e01b14806103a257506301ffc9a760e01b6001600160e01b03198316145b92915050565b6060600380546103b79061110e565b80601f01602080910402602001604051908101604052809291908181526020018280546103e39061110e565b80156104305780601f1061040557610100808354040283529160200191610430565b820191906000526020600020905b81548152906001019060200180831161041357829003601f168201915b5050505050905090565b6000336104488185856106e2565b5060019392505050565b600033610460858285610806565b61046b858585610880565b506001949350505050565b60008281526005602052604090206001015461049181610a4e565b61049b8383610a58565b505050565b6001600160a01b03811633146105155760405162461bcd60e51b815260206004820152602f60248201527f416363657373436f6e74726f6c3a2063616e206f6e6c792072656e6f756e636560448201526e103937b632b9903337b91039b2b63360891b60648201526084015b60405180910390fd5b61051f8282610ade565b5050565b60003361044881858561053683836106b7565b610540919061115f565b6106e2565b7f9f2df0fed2c77648de5860a4cc508cd0818c85b8b8a1ab4ceeef8d981c8956a661056f81610a4e565b61049b8383610b45565b6105833382610c24565b50565b610591823383610806565b61051f8282610c24565b60009182526005602090815260408084206001600160a01b0393909316845291905290205460ff1690565b6060600480546103b79061110e565b7f3c11d16cbaffd01df69ce1c404f6340ee057498f5f00246190ea54220576a8486105ff81610a4e565b61049b8383610c24565b6000338161061782866106b7565b9050838110156106775760405162461bcd60e51b815260206004820152602560248201527f45524332303a2064656372656173656420616c6c6f77616e63652062656c6f77604482015264207a65726f60d81b606482015260840161050c565b61046b82868684036106e2565b600033610448818585610880565b6000828152600560205260409020600101546106ad81610a4e565b61049b8383610ade565b6001600160a01b03918216600090815260016020908152604080832093909416825291909152205490565b6001600160a01b0383166107445760405162461bcd60e51b8152602060048201526024808201527f45524332303a20617070726f76652066726f6d20746865207a65726f206164646044820152637265737360e01b606482015260840161050c565b6001600160a01b0382166107a55760405162461bcd60e51b815260206004820152602260248201527f45524332303a20617070726f766520746f20746865207a65726f206164647265604482015261737360f01b606482015260840161050c565b6001600160a01b0383811660008181526001602090815260408083209487168084529482529182902085905590518481527f8c5be1e5ebec7d5bd14f71427d1e84f3dd0314c0f7b2291e5b200ac8c7c3b925910160405180910390a3505050565b600061081284846106b7565b9050600019811461087a578181101561086d5760405162461bcd60e51b815260206004820152601d60248201527f45524332303a20696e73756666696369656e7420616c6c6f77616e6365000000604482015260640161050c565b61087a84848484036106e2565b50505050565b6001600160a01b0383166108e45760405162461bcd60e51b815260206004820152602560248201527f45524332303a207472616e736665722066726f6d20746865207a65726f206164604482015264647265737360d81b606482015260840161050c565b6001600160a01b0382166109465760405162461bcd60e51b815260206004820152602360248201527f45524332303a207472616e7366657220746f20746865207a65726f206164647260448201526265737360e81b606482015260840161050c565b6001600160a01b038316600090815260208190526040902054818110156109be5760405162461bcd60e51b815260206004820152602660248201527f45524332303a207472616e7366657220616d6f756e7420657863656564732062604482015265616c616e636560d01b606482015260840161050c565b6001600160a01b038085166000908152602081905260408082208585039055918516815290812080548492906109f590849061115f565b92505081905550826001600160a01b0316846001600160a01b03167fddf252ad1be2c89b69c2b068fc378daa952ba7f163c4a11628f55a4df523b3ef84604051610a4191815260200190565b60405180910390a361087a565b6105838133610d72565b610a62828261059b565b61051f5760008281526005602090815260408083206001600160a01b03851684529091529020805460ff19166001179055610a9a3390565b6001600160a01b0316816001600160a01b0316837f2f8788117e7eff1d82e926ec794901d17c78024a50270940304540a733656f0d60405160405180910390a45050565b610ae8828261059b565b1561051f5760008281526005602090815260408083206001600160a01b0385168085529252808320805460ff1916905551339285917ff6391f5c32d9c69d2a47ea670b442974b53935d1edc7fd64eb21e047a839171b9190a45050565b6001600160a01b038216610b9b5760405162461bcd60e51b815260206004820152601f60248201527f45524332303a206d696e7420746f20746865207a65726f206164647265737300604482015260640161050c565b8060026000828254610bad919061115f565b90915550506001600160a01b03821660009081526020819052604081208054839290610bda90849061115f565b90915550506040518181526001600160a01b038316906000907fddf252ad1be2c89b69c2b068fc378daa952ba7f163c4a11628f55a4df523b3ef9060200160405180910390a35050565b6001600160a01b038216610c845760405162461bcd60e51b815260206004820152602160248201527f45524332303a206275726e2066726f6d20746865207a65726f206164647265736044820152607360f81b606482015260840161050c565b6001600160a01b03821660009081526020819052604090205481811015610cf85760405162461bcd60e51b815260206004820152602260248201527f45524332303a206275726e20616d6f756e7420657863656564732062616c616e604482015261636560f01b606482015260840161050c565b6001600160a01b0383166000908152602081905260408120838303905560028054849290610d27908490611177565b90915550506040518281526000906001600160a01b038516907fddf252ad1be2c89b69c2b068fc378daa952ba7f163c4a11628f55a4df523b3ef9060200160405180910390a3505050565b610d7c828261059b565b61051f57610d94816001600160a01b03166014610dd6565b610d9f836020610dd6565b604051602001610db092919061118e565b60408051601f198184030181529082905262461bcd60e51b825261050c91600401610fcf565b60606000610de5836002611203565b610df090600261115f565b67ffffffffffffffff811115610e0857610e08611222565b6040519080825280601f01601f191660200182016040528015610e32576020820181803683370190505b509050600360fc1b81600081518110610e4d57610e4d611238565b60200101906001600160f81b031916908160001a905350600f60fb1b81600181518110610e7c57610e7c611238565b60200101906001600160f81b031916908160001a9053506000610ea0846002611203565b610eab90600161115f565b90505b6001811115610f23576f181899199a1a9b1b9c1cb0b131b232b360811b85600f1660108110610edf57610edf611238565b1a60f81b828281518110610ef557610ef5611238565b60200101906001600160f81b031916908160001a90535060049490941c93610f1c8161124e565b9050610eae565b508315610f725760405162461bcd60e51b815260206004820181905260248201527f537472696e67733a20686578206c656e67746820696e73756666696369656e74604482015260640161050c565b9392505050565b600060208284031215610f8b57600080fd5b81356001600160e01b031981168114610f7257600080fd5b60005b83811015610fbe578181015183820152602001610fa6565b8381111561087a5750506000910152565b6020815260008251806020840152610fee816040850160208701610fa3565b601f01601f19169190910160400192915050565b80356001600160a01b038116811461101957600080fd5b919050565b6000806040838503121561103157600080fd5b61103a83611002565b946020939093013593505050565b60008060006060848603121561105d57600080fd5b61106684611002565b925061107460208501611002565b9150604084013590509250925092565b60006020828403121561109657600080fd5b5035919050565b600080604083850312156110b057600080fd5b823591506110c060208401611002565b90509250929050565b6000602082840312156110db57600080fd5b610f7282611002565b600080604083850312156110f757600080fd5b61110083611002565b91506110c060208401611002565b600181811c9082168061112257607f821691505b6020821081141561114357634e487b7160e01b600052602260045260246000fd5b50919050565b634e487b7160e01b600052601160045260246000fd5b6000821982111561117257611172611149565b500190565b60008282101561118957611189611149565b500390565b7f416363657373436f6e74726f6c3a206163636f756e74200000000000000000008152600083516111c6816017850160208801610fa3565b7001034b99036b4b9b9b4b733903937b6329607d1b60179184019182015283516111f7816028840160208801610fa3565b01602801949350505050565b600081600019048311821515161561121d5761121d611149565b500290565b634e487b7160e01b600052604160045260246000fd5b634e487b7160e01b600052603260045260246000fd5b60008161125d5761125d611149565b50600019019056fea2646970667358221220eb5521698a6388a6787ac2b834bcded6f56e5ee63abb45fcde9448ba112e190c64736f6c63430008090033",
    "sourcePath": "/Volumes/SSD 1TB/Projects/Blockchain/solidity-utec-coding/contracts/learning/Airdrop.sol",
    "compiler": {
        "name": "solc",
        "version": "0.8.9+commit.e5eed63a"
    },
    "functionHashes": {
        "BURNER_ROLE()": "282c51f3",
        "DEFAULT_ADMIN_ROLE()": "a217fddf",
        "MINTER_ROLE()": "d5391393",
        "allowance(address,address)": "dd62ed3e",
        "approve(address,uint256)": "095ea7b3",
        "balanceOf(address)": "70a08231",
        "burn(address,uint256)": "9dc29fac",
        "burn(uint256)": "42966c68",
        "burnFrom(address,uint256)": "79cc6790",
        "decimals()": "313ce567",
        "decreaseAllowance(address,uint256)": "a457c2d7",
        "getRoleAdmin(bytes32)": "248a9ca3",
        "grantRole(bytes32,address)": "2f2ff15d",
        "hasRole(bytes32,address)": "91d14854",
        "increaseAllowance(address,uint256)": "39509351",
        "mint(address,uint256)": "40c10f19",
        "name()": "06fdde03",
        "renounceRole(bytes32,address)": "36568abe",
        "revokeRole(bytes32,address)": "d547741f",
        "supportsInterface(bytes4)": "01ffc9a7",
        "symbol()": "95d89b41",
        "totalSupply()": "18160ddd",
        "transfer(address,uint256)": "a9059cbb",
        "transferFrom(address,address,uint256)": "23b872dd"
    },
    "gasEstimates": {
        "creation": {
            "codeDepositCost": "952600",
            "executionCost": "infinite",
            "totalCost": "infinite"
        },
        "external": {
            "BURNER_ROLE()": "218",
            "DEFAULT_ADMIN_ROLE()": "217",
            "MINTER_ROLE()": "283",
            "allowance(address,address)": "infinite",
            "approve(address,uint256)": "24658",
            "balanceOf(address)": "2585",
            "burn(address,uint256)": "infinite",
            "burn(uint256)": "50872",
            "burnFrom(address,uint256)": "77626",
            "decimals()": "244",
            "decreaseAllowance(address,uint256)": "26983",
            "getRoleAdmin(bytes32)": "2578",
            "grantRole(bytes32,address)": "infinite",
            "hasRole(bytes32,address)": "2743",
            "increaseAllowance(address,uint256)": "27078",
            "mint(address,uint256)": "infinite",
            "name()": "infinite",
            "renounceRole(bytes32,address)": "29090",
            "revokeRole(bytes32,address)": "infinite",
            "supportsInterface(bytes4)": "450",
            "symbol()": "infinite",
            "totalSupply()": "2371",
            "transfer(address,uint256)": "51237",
            "transferFrom(address,address,uint256)": "infinite"
        }
    }
}