{
    "contractName": "TokenERC20_1",
    "abi": [
        {
            "inputs": [
                {
                    "internalType": "string",
                    "name": "_name",
                    "type": "string"
                },
                {
                    "internalType": "string",
                    "name": "_symbol",
                    "type": "string"
                },
                {
                    "internalType": "uint8",
                    "name": "_decimals",
                    "type": "uint8"
                }
            ],
            "stateMutability": "nonpayable",
            "type": "constructor"
        },
        {
            "anonymous": false,
            "inputs": [
                {
                    "indexed": true,
                    "internalType": "address",
                    "name": "owner",
                    "type": "address"
                },
                {
                    "indexed": true,
                    "internalType": "address",
                    "name": "spender",
                    "type": "address"
                },
                {
                    "indexed": false,
                    "internalType": "uint256",
                    "name": "value",
                    "type": "uint256"
                }
            ],
            "name": "Approval",
            "type": "event"
        },
        {
            "anonymous": false,
            "inputs": [
                {
                    "indexed": false,
                    "internalType": "address",
                    "name": "_prevOwner",
                    "type": "address"
                }
            ],
            "name": "RenounceOwnership",
            "type": "event"
        },
        {
            "anonymous": false,
            "inputs": [
                {
                    "indexed": true,
                    "internalType": "address",
                    "name": "from",
                    "type": "address"
                },
                {
                    "indexed": true,
                    "internalType": "address",
                    "name": "to",
                    "type": "address"
                },
                {
                    "indexed": false,
                    "internalType": "uint256",
                    "name": "value",
                    "type": "uint256"
                }
            ],
            "name": "Transfer",
            "type": "event"
        },
        {
            "anonymous": false,
            "inputs": [
                {
                    "indexed": false,
                    "internalType": "address",
                    "name": "_prevOwner",
                    "type": "address"
                },
                {
                    "indexed": false,
                    "internalType": "address",
                    "name": "_newOwner",
                    "type": "address"
                }
            ],
            "name": "TransferOwnership",
            "type": "event"
        },
        {
            "inputs": [],
            "name": "DEFAULT_ADMIN_ROLE",
            "outputs": [
                {
                    "internalType": "bytes32",
                    "name": "",
                    "type": "bytes32"
                }
            ],
            "stateMutability": "view",
            "type": "function"
        },
        {
            "inputs": [],
            "name": "MINTER_ROLE",
            "outputs": [
                {
                    "internalType": "bytes32",
                    "name": "",
                    "type": "bytes32"
                }
            ],
            "stateMutability": "view",
            "type": "function"
        },
        {
            "inputs": [
                {
                    "internalType": "address",
                    "name": "owner",
                    "type": "address"
                },
                {
                    "internalType": "address",
                    "name": "spender",
                    "type": "address"
                }
            ],
            "name": "allowance",
            "outputs": [
                {
                    "internalType": "uint256",
                    "name": "",
                    "type": "uint256"
                }
            ],
            "stateMutability": "view",
            "type": "function"
        },
        {
            "inputs": [
                {
                    "internalType": "address",
                    "name": "spender",
                    "type": "address"
                },
                {
                    "internalType": "uint256",
                    "name": "amount",
                    "type": "uint256"
                }
            ],
            "name": "approve",
            "outputs": [
                {
                    "internalType": "bool",
                    "name": "",
                    "type": "bool"
                }
            ],
            "stateMutability": "nonpayable",
            "type": "function"
        },
        {
            "inputs": [
                {
                    "internalType": "address",
                    "name": "account",
                    "type": "address"
                }
            ],
            "name": "balanceOf",
            "outputs": [
                {
                    "internalType": "uint256",
                    "name": "",
                    "type": "uint256"
                }
            ],
            "stateMutability": "view",
            "type": "function"
        },
        {
            "inputs": [
                {
                    "internalType": "uint256",
                    "name": "amount",
                    "type": "uint256"
                }
            ],
            "name": "burn",
            "outputs": [],
            "stateMutability": "nonpayable",
            "type": "function"
        },
        {
            "inputs": [],
            "name": "decimals",
            "outputs": [
                {
                    "internalType": "uint8",
                    "name": "",
                    "type": "uint8"
                }
            ],
            "stateMutability": "view",
            "type": "function"
        },
        {
            "inputs": [
                {
                    "internalType": "address",
                    "name": "spender",
                    "type": "address"
                },
                {
                    "internalType": "uint256",
                    "name": "subtractedValue",
                    "type": "uint256"
                }
            ],
            "name": "decreaseAllowance",
            "outputs": [
                {
                    "internalType": "bool",
                    "name": "",
                    "type": "bool"
                }
            ],
            "stateMutability": "nonpayable",
            "type": "function"
        },
        {
            "inputs": [
                {
                    "internalType": "address",
                    "name": "_account",
                    "type": "address"
                },
                {
                    "internalType": "bytes32",
                    "name": "role",
                    "type": "bytes32"
                }
            ],
            "name": "grantRole",
            "outputs": [],
            "stateMutability": "nonpayable",
            "type": "function"
        },
        {
            "inputs": [
                {
                    "internalType": "address",
                    "name": "_account",
                    "type": "address"
                },
                {
                    "internalType": "bytes32",
                    "name": "_role",
                    "type": "bytes32"
                },
                {
                    "internalType": "uint256",
                    "name": "_limit",
                    "type": "uint256"
                }
            ],
            "name": "grantRoleTemporarily",
            "outputs": [],
            "stateMutability": "nonpayable",
            "type": "function"
        },
        {
            "inputs": [
                {
                    "internalType": "address",
                    "name": "_account",
                    "type": "address"
                },
                {
                    "internalType": "bytes32",
                    "name": "role",
                    "type": "bytes32"
                }
            ],
            "name": "hasRole",
            "outputs": [
                {
                    "internalType": "bool",
                    "name": "",
                    "type": "bool"
                }
            ],
            "stateMutability": "view",
            "type": "function"
        },
        {
            "inputs": [
                {
                    "internalType": "address",
                    "name": "_account",
                    "type": "address"
                },
                {
                    "internalType": "bytes32",
                    "name": "_role",
                    "type": "bytes32"
                }
            ],
            "name": "hasTemporaryRole",
            "outputs": [
                {
                    "internalType": "bool",
                    "name": "",
                    "type": "bool"
                },
                {
                    "internalType": "uint256",
                    "name": "",
                    "type": "uint256"
                }
            ],
            "stateMutability": "view",
            "type": "function"
        },
        {
            "inputs": [
                {
                    "internalType": "address",
                    "name": "spender",
                    "type": "address"
                },
                {
                    "internalType": "uint256",
                    "name": "addedValue",
                    "type": "uint256"
                }
            ],
            "name": "increaseAllowance",
            "outputs": [
                {
                    "internalType": "bool",
                    "name": "",
                    "type": "bool"
                }
            ],
            "stateMutability": "nonpayable",
            "type": "function"
        },
        {
            "inputs": [
                {
                    "internalType": "address",
                    "name": "to",
                    "type": "address"
                },
                {
                    "internalType": "uint256",
                    "name": "amount",
                    "type": "uint256"
                }
            ],
            "name": "mint",
            "outputs": [],
            "stateMutability": "nonpayable",
            "type": "function"
        },
        {
            "inputs": [
                {
                    "internalType": "address",
                    "name": "to",
                    "type": "address"
                },
                {
                    "internalType": "uint256",
                    "name": "amount",
                    "type": "uint256"
                }
            ],
            "name": "mintProtected",
            "outputs": [],
            "stateMutability": "nonpayable",
            "type": "function"
        },
        {
            "inputs": [],
            "name": "name",
            "outputs": [
                {
                    "internalType": "string",
                    "name": "",
                    "type": "string"
                }
            ],
            "stateMutability": "view",
            "type": "function"
        },
        {
            "inputs": [],
            "name": "renounceOwnership",
            "outputs": [],
            "stateMutability": "nonpayable",
            "type": "function"
        },
        {
            "inputs": [],
            "name": "symbol",
            "outputs": [
                {
                    "internalType": "string",
                    "name": "",
                    "type": "string"
                }
            ],
            "stateMutability": "view",
            "type": "function"
        },
        {
            "inputs": [],
            "name": "totalSupply",
            "outputs": [
                {
                    "internalType": "uint256",
                    "name": "",
                    "type": "uint256"
                }
            ],
            "stateMutability": "view",
            "type": "function"
        },
        {
            "inputs": [
                {
                    "internalType": "address",
                    "name": "to",
                    "type": "address"
                },
                {
                    "internalType": "uint256",
                    "name": "amount",
                    "type": "uint256"
                }
            ],
            "name": "transfer",
            "outputs": [
                {
                    "internalType": "bool",
                    "name": "",
                    "type": "bool"
                }
            ],
            "stateMutability": "nonpayable",
            "type": "function"
        },
        {
            "inputs": [
                {
                    "internalType": "address",
                    "name": "from",
                    "type": "address"
                },
                {
                    "internalType": "address",
                    "name": "to",
                    "type": "address"
                },
                {
                    "internalType": "uint256",
                    "name": "amount",
                    "type": "uint256"
                }
            ],
            "name": "transferFrom",
            "outputs": [
                {
                    "internalType": "bool",
                    "name": "",
                    "type": "bool"
                }
            ],
            "stateMutability": "nonpayable",
            "type": "function"
        },
        {
            "inputs": [
                {
                    "internalType": "address",
                    "name": "_newOwner",
                    "type": "address"
                }
            ],
            "name": "transferOwnership",
            "outputs": [],
            "stateMutability": "nonpayable",
            "type": "function"
        }
    ],
    "bytecode": "60806040523480156200001157600080fd5b50604051620014aa380380620014aa833981016040819052620000349162000212565b336000908152602081815260408083208380528252909120805460ff1916600117905583516200006b91600691908601906200009f565b508151620000819060079060208501906200009f565b506008805460ff191660ff9290921691909117905550620002d49050565b828054620000ad9062000297565b90600052602060002090601f016020900481019282620000d157600085556200011c565b82601f10620000ec57805160ff19168380011785556200011c565b828001600101855582156200011c579182015b828111156200011c578251825591602001919060010190620000ff565b506200012a9291506200012e565b5090565b5b808211156200012a57600081556001016200012f565b634e487b7160e01b600052604160045260246000fd5b600082601f8301126200016d57600080fd5b81516001600160401b03808211156200018a576200018a62000145565b604051601f8301601f19908116603f01168101908282118183101715620001b557620001b562000145565b81604052838152602092508683858801011115620001d257600080fd5b600091505b83821015620001f65785820183015181830184015290820190620001d7565b83821115620002085760008385830101525b9695505050505050565b6000806000606084860312156200022857600080fd5b83516001600160401b03808211156200024057600080fd5b6200024e878388016200015b565b945060208601519150808211156200026557600080fd5b5062000274868287016200015b565b925050604084015160ff811681146200028c57600080fd5b809150509250925092565b600181811c90821680620002ac57607f821691505b60208210811415620002ce57634e487b7160e01b600052602260045260246000fd5b50919050565b6111c680620002e46000396000f3fe608060405234801561001057600080fd5b50600436106101425760003560e01c806396b5e388116100b8578063ac4ab3fb1161007c578063ac4ab3fb1461028a578063d53913931461029d578063dd62ed3e146102c4578063e412ac65146102d7578063ed119de0146102ea578063f2fde38b1461033a57600080fd5b806396b5e38814610236578063a217fddf14610249578063a457c2d714610251578063a9059cbb14610264578063ab2742dc1461027757600080fd5b8063395093511161010a57806339509351146101c257806340c10f19146101d557806342966c68146101ea57806370a08231146101fd578063715018a61461022657806395d89b411461022e57600080fd5b806306fdde0314610147578063095ea7b31461016557806318160ddd1461018857806323b872dd1461019a578063313ce567146101ad575b600080fd5b61014f61034d565b60405161015c9190610f15565b60405180910390f35b610178610173366004610f86565b6103df565b604051901515815260200161015c565b6002545b60405190815260200161015c565b6101786101a8366004610fb0565b610550565b60085460405160ff909116815260200161015c565b6101786101d0366004610f86565b610742565b6101e86101e3366004610f86565b6107c6565b005b6101e86101f8366004610fec565b610896565b61018c61020b366004611005565b6001600160a01b031660009081526003602052604090205490565b6101e86109ae565b61014f610a2a565b6101e8610244366004610f86565b610a39565b61018c600081565b61017861025f366004610f86565b610a8f565b610178610272366004610f86565b610b88565b6101e8610285366004610f86565b610c68565b610178610298366004610f86565b610cbf565b61018c7f9f2df0fed2c77648de5860a4cc508cd0818c85b8b8a1ab4ceeef8d981c8956a681565b61018c6102d2366004611027565b610ce8565b6101e86102e536600461105a565b610d5b565b6103236102f8366004610f86565b6001600160a01b03919091166000908152600160209081526040808320938352929052205480151591565b60408051921515835260208301919091520161015c565b6101e8610348366004611005565b610e7d565b60606006805461035c9061108d565b80601f01602080910402602001604051908101604052809291908181526020018280546103889061108d565b80156103d55780601f106103aa576101008083540402835291602001916103d5565b820191906000526020600020905b8154815290600101906020018083116103b857829003601f168201915b5050505050905090565b60006001600160a01b03831661044a5760405162461bcd60e51b815260206004820152602560248201527f496e74656e74616e646f206f746f72676172207065726d69736f20612063756560448201526406e746120360dc1b60648201526084015b60405180910390fd5b3360009081526005602090815260408083206001600160a01b038716845290915290205460ff16156104b55760405162461bcd60e51b81526020600482015260146024820152734375656e7461207961206175746f72697a61646160601b6044820152606401610441565b336001600160a01b03841614156105225760405162461bcd60e51b815260206004820152602b60248201527f50726f706965746172696f206e6f207075656465206175746f72697a6172736560448201526a2061207369206d69736d6f60a81b6064820152608401610441565b503360009081526004602090815260408083206001600160a01b039590951683529390529190912055600190565b6001600160a01b038316600090815260056020908152604080832033845290915281205460ff166105935760405162461bcd60e51b8152600401610441906110c8565b6001600160a01b0384166000908152600460209081526040808320338452909152902054828110156106075760405162461bcd60e51b815260206004820181905260248201527f4e6f207469656e65207065726d69736f2070617261207472616e7366657269726044820152606401610441565b6001600160a01b038516600090815260036020526040902054838110156106675760405162461bcd60e51b8152602060048201526014602482015273496e737566696369656e74657320666f6e646f7360601b6044820152606401610441565b6001600160a01b0386166000908152600360205260408120805486929061068f90849061110c565b90915550506001600160a01b038516600090815260036020526040812080548692906106bc908490611123565b90915550506001600160a01b0386166000908152600460209081526040808320338452909152812080548692906106f490849061110c565b92505081905550846001600160a01b0316866001600160a01b03166000805160206111718339815191528660405161072e91815260200190565b60405180910390a350600195945050505050565b3360009081526005602090815260408083206001600160a01b038616845290915281205460ff166107855760405162461bcd60e51b8152600401610441906110c8565b3360009081526004602090815260408083206001600160a01b0387168452909152812080548492906107b8908490611123565b909155506001949350505050565b6001600160a01b03821661081c5760405162461bcd60e51b815260206004820152601d60248201527f4d696e742061206661766f722064656c2061646472657373207a65726f0000006044820152606401610441565b6001600160a01b03821660009081526003602052604081208054839290610844908490611123565b92505081905550806002600082825461085d9190611123565b90915550506040518181526001600160a01b03831690600090600080516020611171833981519152906020015b60405180910390a35050565b336108e35760405162461bcd60e51b815260206004820152601f60248201527f5365207175656d6120746f6b656e732064652061646472657373207a65726f006044820152606401610441565b336000908152600360205260409020548181101561094e5760405162461bcd60e51b815260206004820152602260248201527f4375656e7461206e6f207469656e6520737566696369656e74657320746f6b656044820152616e7360f01b6064820152608401610441565b336000908152600360205260408120805484929061096d90849061110c565b925050819055508160026000828254610986919061110c565b909155505060405182815260009033906000805160206111718339815191529060200161088a565b60006109ba3382610cbf565b6109d65760405162461bcd60e51b81526004016104419061113b565b33600081815260208181526040808320838052825291829020805460ff1916905590519182527f78051f4d375fa5e34e0acac11b69c75d30c1414823705aded4dc11b9b6d70418910160405180910390a150565b60606007805461035c9061108d565b7f9f2df0fed2c77648de5860a4cc508cd0818c85b8b8a1ab4ceeef8d981c8956a6610a643382610cbf565b610a805760405162461bcd60e51b81526004016104419061113b565b610a8a83836107c6565b505050565b3360009081526005602090815260408083206001600160a01b038616845290915281205460ff16610ad25760405162461bcd60e51b8152600401610441906110c8565b3360009081526004602090815260408083206001600160a01b038716845290915290205482811015610b465760405162461bcd60e51b815260206004820152601f60248201527f43616e7469646164207065726d697469646120696e737566696369656e7465006044820152606401610441565b3360009081526004602090815260408083206001600160a01b038816845290915281208054859290610b7990849061110c565b90915550600195945050505050565b3360009081526003602052604081205482811015610bdf5760405162461bcd60e51b8152602060048201526014602482015273496e737566696369656e74657320666f6e646f7360601b6044820152606401610441565b3360009081526003602052604081208054859290610bfe90849061110c565b90915550506001600160a01b03841660009081526003602052604081208054859290610c2b908490611123565b90915550506040518381526001600160a01b0385169033906000805160206111718339815191529060200160405180910390a35060019392505050565b6000610c743382610cbf565b610c905760405162461bcd60e51b81526004016104419061113b565b506001600160a01b0390911660009081526020818152604080832093835292905220805460ff19166001179055565b6001600160a01b0391909116600090815260208181526040808320938352929052205460ff1690565b6001600160a01b03808316600090815260056020908152604080832093851683529290529081205460ff16610d2f5760405162461bcd60e51b8152600401610441906110c8565b506001600160a01b03918216600090815260046020908152604080832093909416825291909152205490565b6000610d673382610cbf565b610d835760405162461bcd60e51b81526004016104419061113b565b6001821015610dd45760405162461bcd60e51b815260206004820181905260248201527f456c206c696d697465206465626520736572206d61796f722071756520756e6f6044820152606401610441565b6001600160a01b038416600090815260016020908152604080832086845290915290205480610e555760405162461bcd60e51b815260206004820152602760248201527f45737461206375656e7461207961207469656e6520756e206c696d69746520616044820152667369676e61646f60c81b6064820152608401610441565b50506001600160a01b0390921660009081526001602090815260408083209383529290522055565b6000610e893382610cbf565b610ea55760405162461bcd60e51b81526004016104419061113b565b336000908152602081815260408083208380529091528120805460ff19169055610ed0908390610c68565b604080513381526001600160a01b03841660208201527f5c486528ec3e3f0ea91181cff8116f02bfa350e03b8b6f12e00765adbb5af85c910160405180910390a15050565b600060208083528351808285015260005b81811015610f4257858101830151858201604001528201610f26565b81811115610f54576000604083870101525b50601f01601f1916929092016040019392505050565b80356001600160a01b0381168114610f8157600080fd5b919050565b60008060408385031215610f9957600080fd5b610fa283610f6a565b946020939093013593505050565b600080600060608486031215610fc557600080fd5b610fce84610f6a565b9250610fdc60208501610f6a565b9150604084013590509250925092565b600060208284031215610ffe57600080fd5b5035919050565b60006020828403121561101757600080fd5b61102082610f6a565b9392505050565b6000806040838503121561103a57600080fd5b61104383610f6a565b915061105160208401610f6a565b90509250929050565b60008060006060848603121561106f57600080fd5b61107884610f6a565b95602085013595506040909401359392505050565b600181811c908216806110a157607f821691505b602082108114156110c257634e487b7160e01b600052602260045260246000fd5b50919050565b6020808252601490820152734375656e7461206e6f206175746f72697a61646160601b604082015260600190565b634e487b7160e01b600052601160045260246000fd5b60008282101561111e5761111e6110f6565b500390565b60008219821115611136576111366110f6565b500190565b6020808252818101527f4375656e7461206e6f207469656e6520656c20726f6c206e656365736172696f60408201526060019056feddf252ad1be2c89b69c2b068fc378daa952ba7f163c4a11628f55a4df523b3efa264697066735822122000c2b9810c34b325b936c07ba857377c604e4933f75292549d479280b0cf1bc364736f6c63430008090033",
    "sourcePath": "/Volumes/SSD 1TB/Projects/Blockchain/solidity-utec-coding/contracts/learning/TokenERC20_1.sol",
    "compiler": {
        "name": "solc",
        "version": "0.8.9+commit.e5eed63a"
    },
    "functionHashes": {
        "DEFAULT_ADMIN_ROLE()": "a217fddf",
        "MINTER_ROLE()": "d5391393",
        "allowance(address,address)": "dd62ed3e",
        "approve(address,uint256)": "095ea7b3",
        "balanceOf(address)": "70a08231",
        "burn(uint256)": "42966c68",
        "decimals()": "313ce567",
        "decreaseAllowance(address,uint256)": "a457c2d7",
        "grantRole(address,bytes32)": "ab2742dc",
        "grantRoleTemporarily(address,bytes32,uint256)": "e412ac65",
        "hasRole(address,bytes32)": "ac4ab3fb",
        "hasTemporaryRole(address,bytes32)": "ed119de0",
        "increaseAllowance(address,uint256)": "39509351",
        "mint(address,uint256)": "40c10f19",
        "mintProtected(address,uint256)": "96b5e388",
        "name()": "06fdde03",
        "renounceOwnership()": "715018a6",
        "symbol()": "95d89b41",
        "totalSupply()": "18160ddd",
        "transfer(address,uint256)": "a9059cbb",
        "transferFrom(address,address,uint256)": "23b872dd",
        "transferOwnership(address)": "f2fde38b"
    },
    "gasEstimates": {
        "creation": {
            "codeDepositCost": "910000",
            "executionCost": "infinite",
            "totalCost": "infinite"
        },
        "external": {
            "DEFAULT_ADMIN_ROLE()": "240",
            "MINTER_ROLE()": "239",
            "allowance(address,address)": "infinite",
            "approve(address,uint256)": "25078",
            "balanceOf(address)": "2626",
            "burn(uint256)": "infinite",
            "decimals()": "2401",
            "decreaseAllowance(address,uint256)": "29491",
            "grantRole(address,bytes32)": "27133",
            "grantRoleTemporarily(address,bytes32,uint256)": "27319",
            "hasRole(address,bytes32)": "2679",
            "hasTemporaryRole(address,bytes32)": "2785",
            "increaseAllowance(address,uint256)": "27161",
            "mint(address,uint256)": "infinite",
            "mintProtected(address,uint256)": "infinite",
            "name()": "infinite",
            "renounceOwnership()": "27986",
            "symbol()": "infinite",
            "totalSupply()": "2349",
            "transfer(address,uint256)": "infinite",
            "transferFrom(address,address,uint256)": "infinite",
            "transferOwnership(address)": "infinite"
        }
    }
}